:100000000C942A000C9447000C9447000C94FB0FAE
:100010000C94EA080C94BD080C94340C0C948E0AD1
:100020000C94610A0C94340A0C94A90B0C947C0B6C
:100030000C94CC0C0C9485060C94F2060C94BF0620
:100040000C9447000C9447000C9447000C94470014
:100050000C94470011241FBECFE5D8E0DEBFCDBF12
:1000600013E0A0E6B0E0E8EBFAE702C005900D92DD
:10007000A032B107D9F713E0A0E2B3E001C01D92AE
:10008000A735B107E1F70E947D3C0C945A3D0C94D2
:100090000000EF92FF920F931F937B018C0120E0F1
:1000A00030E040E05FE40E94790388238CF0C801CF
:1000B000B70120E030E040E05FE40E94C1010E940F
:1000C000D9039B01AC01205030404040504806C04D
:1000D000C801B7010E94D9039B01AC01B901CA0153
:1000E0001F910F91FF90EF900895A0E0B0E0EBE733
:1000F000F0E00C94233DDC012B01FA019C9192303D
:1001000008F439C1EB018881823008F433C194309E
:1001100069F4843009F02FC111969C91119789815F
:10012000981709F428C1A1E7B2E025C1843009F489
:1001300021C18230A9F4923009F01DC19A01AD01AC
:1001400088E0EA010990AE01E90109929E0181501F
:10015000C1F7E201898111969C918923818308C1AD
:10016000923009F407C112962D903C901397EB0141
:100170008A819B811496AD90BD90CD90DC901797AD
:10018000EC80FD800E811F819101281B390BB90184
:1001900037FF04C066277727621B730B6032710537
:1001A0000CF061C0121613066CF537014801062EDB
:1001B00004C096948794779467940A94D2F721E0C8
:1001C00030E040E050E004C0220F331F441F551FB1
:1001D0006A95D2F721503040404050402E213F21B7
:1001E00040235123211531054105510521F021E01E
:1001F00030E040E050E079018A01E628F72808293C
:1002000019293CC0232BD1F1260E371E350146019A
:10021000062E04C096948794779467940A94D2F734
:1002200021E030E040E050E004C0220F331F441FC3
:10023000551F6A95D2F721503040404050402A2146
:100240003B214C215D21211531054105510521F04E
:1002500021E030E040E050E059016A01A628B728CB
:10026000C828D9280BC0821593052CF01C01AA249C
:10027000BB24650103C0EE24FF24870111969C91E5
:10028000D20111968C91981709F445C0992339F041
:10029000A80197012A193B094C095D0906C0A6016E
:1002A00095012E193F09400B510B57FD08C01182D3
:1002B0003382228224833583468357831DC081E0A5
:1002C00081833382228288279927DC01821B930B4A
:1002D000A40BB50B84839583A683B7830DC0220F2F
:1002E000331F441F551F24833583468357838281E0
:1002F000938101979383828324813581468157813D
:10030000DA01C9010197A109B1098F5F9F4FAF4F72
:10031000BF4328F30BC0918333822282EA0CFB1C7B
:100320000C1D1D1DE482F5820683178383E0808304
:10033000248135814681578157FF1AC0C901AA27F8
:1003400097FDA095BA2F81709070A070B0705695EF
:10035000479537952795822B932BA42BB52B848318
:100360009583A683B7838281938101969383828349
:10037000DF0101C0D201CD01CDB7DEB7E2E10C94BF
:100380003F3DA0E2B0E0E7ECF1E00C942F3D698343
:100390007A838B839C832D833E834F835887E9E048
:1003A000EE2EF12CEC0EFD1ECE010196B7010E943F
:1003B00002058E010F5E1F4FCE010596B8010E9407
:1003C00002058A8991E089278A8BC701B801AE01AD
:1003D000475E5F4F0E9475000E942D04A096E6E0E4
:1003E0000C944B3DA0E2B0E0E8EFF1E00C942F3D1F
:1003F00069837A838B839C832D833E834F835887C5
:10040000F9E0EF2EF12CEC0EFD1ECE010196B701A6
:100410000E9402058E010F5E1F4FCE010596B801A6
:100420000E940205C701B801AE01475E5F4F0E94FE
:1004300075000E942D04A096E6E00C944B3DA0E2CE
:10044000B0E0E5E2F2E00C94233D69837A838B838C
:100450009C832D833E834F835887CE010196BE0136
:10046000675F7F4F0E940205CE010596BE016F5E59
:100470007F4F0E9402059985923088F089898230E9
:10048000C8F0943019F4823051F404C0843029F457
:10049000923081F481E792E0C6C0923049F420E0C6
:1004A0009A858A89981321E02A87CE010996BBC0D4
:1004B000823049F420E09A858A89981321E02A8BBA
:1004C000CE014196B0C02D843E844F8458886D88FB
:1004D0007E888F88988CEE24FF248701AA24BB2471
:1004E000650140E050E060E070E0E0E0F0E0C10174
:1004F00081709070892BE9F0E60CF71C081D191D1E
:100500009A01AB012A0D3B1D4C1D5D1D80E090E062
:10051000A0E0B0E0E614F7040805190520F481E036
:1005200090E0A0E0B0E0BA01A901480F591F6A1F8E
:100530007B1FAA0CBB1CCC1CDD1C97FE08C081E0F5
:1005400090E0A0E0B0E0A82AB92ACA2ADB2A3196B6
:10055000E032F10549F0660C771C881C991C569412
:10056000479437942794C3CFFA85EA892B893C892D
:100570008B859C85280F391F2E5F3F4F17C0CA01FE
:1005800081709070892B61F016950795F794E79428
:1005900080E090E0A0E0B0E8E82AF92A0A2B1B2BC3
:1005A00076956795579547952F5F3F4F77FDE7CF36
:1005B0000CC0440F551F661F771F17FD4160EE0CDE
:1005C000FF1C001F111F21503040403090E05907A0
:1005D00090E0690790E4790760F32B8F3C8FDB0193
:1005E000CA018F779070A070B07080349105A1051A
:1005F000B10561F447FD0AC0E114F10401051105DC
:1006000029F0405C5F4F6F4F7F4F40781A8EFE1786
:1006100011F081E08A8F4D8F5E8F6F8F78A383E01A
:10062000898FCE0149960E942D04A096E2E10C9498
:100630003F3DA8E1B0E0EFE1F3E00C942F3D69838A
:100640007A838B839C832D833E834F83588789E0F5
:10065000E82EF12CEC0EFD1ECE010196B7010E9492
:1006600002058E010F5E1F4FCE010596B8010E9454
:1006700002058985823040F08989823028F0C701DF
:10068000B8010E947A0501C081E06896E6E00C940A
:100690004B3DA8E1B0E0EFE4F3E00C942F3D69831B
:1006A0007A838B839C832D833E834F83588789E095
:1006B000E82EF12CEC0EFD1ECE010196B7010E9432
:1006C00002058E010F5E1F4FCE010596B8010E94F4
:1006D00002058985823040F08989823028F0C7017F
:1006E000B8010E947A0501C08FEF6896E6E00C948D
:1006F0004B3DA8E1B0E0EFE7F3E00C942F3D6983B8
:100700007A838B839C832D833E834F83588789E034
:10071000E82EF12CEC0EFD1ECE010196B7010E94D1
:1007200002058E010F5E1F4FCE010596B8010E9493
:1007300002058985823040F08989823028F0C7011E
:10074000B8010E947A0501C08FEF6896E6E00C942C
:100750004B3DA8E1B0E0EFEAF3E00C942F3D698354
:100760007A838B839C832D833E834F83588789E0D4
:10077000E82EF12CEC0EFD1ECE010196B7010E9471
:1007800002058E010F5E1F4FCE010596B8010E9433
:1007900002058985823040F08989823028F0C701BE
:1007A000B8010E947A0501C081E06896E6E00C94E9
:1007B0004B3DACE0B0E0EFEDF3E00C94333D6983EA
:1007C0007A838B839C83CE010196BE016B5F7F4F42
:1007D0000E9402058D81823061F1823050F18430B7
:1007E00021F48E81882351F12EC02F81388537FD69
:1007F00020C06E812F3131051CF06623F9F023C033
:100800008EE190E0821B930B29853A854B855C85B0
:1008100004C056954795379527958A95D2F7662354
:10082000B1F050954095309521953F4F4F4F5F4F18
:100830000EC020E030E040E050E009C02FEF3FEF75
:100840004FEF5FE704C020E030E040E050E8B9013E
:10085000CA012C96E2E00C944F3DDF92EF92FF929A
:100860000F931F93FC01E480F58006811781D180EE
:100870008081823048F480E090E0A0E1B0E0E82A96
:10088000F92A0A2B1B2BA5C0843009F49FC08230A3
:1008900021F4EE24FF24870105C0E114F1040105D1
:1008A000110519F4E0E0F0E096C0628173819FEFDA
:1008B000623879070CF05BC022E83FEF261B370B4C
:1008C0002A3131052CF020E030E040E050E02AC031
:1008D000B801A701022E04C07695679557954795F4
:1008E0000A94D2F781E090E0A0E0B0E004C0880F65
:1008F000991FAA1FBB1F2A95D2F70197A109B10919
:100900008E219F21A023B1230097A105B10521F0DD
:1009100081E090E0A0E0B0E09A01AB01282B392BF8
:100920004A2B5B2BDA01C9018F779070A070B070F1
:1009300080349105A105B10539F427FF09C0205C79
:100940003F4F4F4F5F4F04C0215C3F4F4F4F5F4FB2
:10095000E0E0F0E02030A0E03A07A0E04A07A0E4A1
:100960005A0710F0E1E0F0E079018A0127C0603811
:10097000710564F5FB01E158FF4FD801C7018F777E
:100980009070A070B07080349105A105B10539F464
:10099000E7FE0DC080E490E0A0E0B0E004C08FE38B
:1009A00090E0A0E0B0E0E80EF91E0A1F1B1F17FF41
:1009B00005C016950795F794E794319687E016954C
:1009C0000795F794E7948A95D1F705C0EE24FF24A4
:1009D0008701EFEFF0E06E2F679566276795902F00
:1009E0009F77D794DD24D7948E2F8695492F462B59
:1009F000582F5D29B701CA011F910F91FF90EF9009
:100A0000DF900895FC01DB01408151812281622F3A
:100A10006F7770E0221F2227221F9381892F880F72
:100A2000822B282F30E0991F9927991F11969C93AC
:100A3000119721153105A9F541155105610571057C
:100A400011F482E037C082E89FEF13969C938E9357
:100A500012979A01AB0167E0220F331F441F551F05
:100A60006A95D1F783E08C930DC0220F331F441F8A
:100A7000551F12968D919C911397019713969C93F5
:100A80008E931297203080E0380780E0480780E49A
:100A9000580758F314962D933D934D935C931797F5
:100AA00008952F3F310579F4411551056105710510
:100AB00019F484E08C93089564FF03C081E08C9363
:100AC00012C01C9210C02F57304013963C932E93A7
:100AD000129783E08C9387E0440F551F661F771FA2
:100AE0008A95D1F7706414964D935D936D937C93C2
:100AF000179708951F93DC01FB019C91923008F435
:100B000047C08081823008F443C0943051F411967C
:100B10001C91843099F58181682F70E0611B710907
:100B20003FC0843021F0923031F48230B9F18181BC
:100B3000882389F12DC011961C9111978230F1F014
:100B400081811817D9F412962D913C9113978281C7
:100B500093818217930794F028173907BCF01496F5
:100B60008D919D910D90BC91A02D24813581468160
:100B70005781281739074A075B0718F4112341F0FA
:100B80000AC082179307A407B50740F4112319F090
:100B900061E070E005C06FEF7FEF02C060E070E0E1
:100BA000CB011F910895DF93CF9300D000D0CDB734
:100BB000DEB787E690E0A0E0B0E089839A83AB835C
:100BC000BC83E9E2F0E089818083E0E4F0E08981A0
:100BD0009A81AB81BC81892F9A2FAB2FBB278F7055
:100BE0008083A0E4B0E0E0E4F0E08081806C8C934E
:100BF000A0E4B0E0E0E4F0E0808188688C93A0E4B9
:100C0000B0E0E0E4F0E0808180688C93A0E4B0E0A4
:100C1000E0E4F0E0808186688C93AAE2B0E0EAE24A
:100C2000F0E080818B7F8C93AAE2B0E0EAE2F0E012
:100C3000808188608C93AAE2B0E0EAE2F0E08081F3
:100C400080698C930F900F900F900F90CF91DF9150
:100C50000895DF93CF930F92CDB7DEB78983EBE290
:100C6000F0E08081882F90E0807290700097B9F357
:100C7000ECE2F0E0898180830F90CF91DF910895BD
:100C8000DF93CF93CDB7DEB7EBE2F0E0808188232E
:100C9000DCF7ECE2F0E08081CF91DF910895DF9303
:100CA000CF9300D0CDB7DEB79A83898389819A81AB
:100CB00090932303809322030F900F90CF91DF91A5
:100CC0000895DF93CF9300D0CDB7DEB79A838983A1
:100CD00089819A8190932103809320030F900F9034
:100CE000CF91DF910895DF93CF9300D0CDB7DEB7DA
:100CF0009A83898389819A81909325038093240321
:100D00000F900F90CF91DF9108951F920F920FB621
:100D10000F9211242F933F934F935F936F937F9381
:100D20008F939F93AF93BF93EF93FF93DF93CF93F3
:100D30000F92CDB7DEB7ECE2F0E08081898380913D
:100D4000200390912103009731F0E0912003F0916E
:100D50002103898109950F90CF91DF91FF91EF9148
:100D6000BF91AF919F918F917F916F915F914F91C3
:100D70003F912F910F900FBE0F901F9018951F92CB
:100D80000F920FB60F9211242F933F934F935F93BF
:100D90006F937F938F939F93AF93BF93EF93FF9343
:100DA000DF93CF93CDB7DEB78091240390912503D5
:100DB000009729F0E0912403F09125030995CF9144
:100DC000DF91FF91EF91BF91AF919F918F917F91B3
:100DD0006F915F914F913F912F910F900FBE0F90A8
:100DE0001F9018951F920F920FB60F9211242F93F8
:100DF0003F934F935F936F937F938F939F93AF93A3
:100E0000BF93EF93FF93DF93CF93CDB7DEB780917E
:100E1000220390912303009729F0E0912203F0919F
:100E200023030995CF91DF91FF91EF91BF91AF918E
:100E30009F918F917F916F915F914F913F912F91F2
:100E40000F900FBE0F901F901895DF93CF9300D097
:100E500000D000D0CDB7DEB769837A838B839C83C3
:100E6000A1E4B0E0E1E4F0E08081887F8C931D8212
:100E700069817A818B819C8120E030E040E85FE3EA
:100E80000E941903882311F481E08D8381E09D8104
:100E90008927882309F48BC069817A818B819C81A1
:100EA00020E030E040E050E40E941903882341F440
:100EB000A1E4B0E0E1E4F0E08081896F8C9377C039
:100EC00069817A818B819C8120E030E040E450E4AC
:100ED0000E941903882341F4A1E4B0E0E1E4F0E0CA
:100EE00080818A6F8C9363C069817A818B819C81B8
:100EF00020E030E040E850E40E941903882341F4E8
:100F0000A1E4B0E0E1E4F0E080818B6F8C934FC00E
:100F100069817A818B819C8120E030E040EA50E455
:100F20000E941903882341F4A1E4B0E0E1E4F0E079
:100F300080818C6F8C933BC069817A818B819C818D
:100F400020E030E040EC50E40E941903882341F493
:100F5000A1E4B0E0E1E4F0E080818D6F8C9327C0E4
:100F600069817A818B819C8120E030E040EE50E401
:100F70000E941903882341F4A1E4B0E0E1E4F0E029
:100F800080818E6F8C9313C069817A818B819C8163
:100F900020E030E040E051E40E941903882339F456
:100FA000E1E4F0E08081E1E4F0E08FEF8083A1E410
:100FB000B0E0E1E4F0E0808188608C9326960FB683
:100FC000F894DEBF0FBECDBFCF91DF910895DF93C0
:100FD000CF93CDB7DEB7A1E4B0E0E1E4F0E08081EB
:100FE00088618C93A1E4B0E0E1E4F0E080818F7E41
:100FF0008C93CF91DF910895DF93CF93CDB7DEB778
:10100000A5E4B0E0E5E4F0E0808180628C93A5E4A3
:10101000B0E0E5E4F0E0808180648C93A5E4B0E08A
:10102000E5E4F0E0808188608C93CF91DF910895B2
:10103000DF93CF93CDB7DEB7A5E4B0E0E5E4F0E011
:101040008081887F8C93A5E4B0E0E5E4F0E08081C6
:1010500085608C93CF91DF910895DF93CF930F92AA
:10106000CDB7DEB78983E4E4F0E0898180830F9017
:10107000CF91DF910895DF93CF9300D0CDB7DEB746
:101080008A838A81882F90E0982F882724E630E091
:10109000B9010E94D33CCB018150898389810F9093
:1010A0000F90CF91DF910895DF93CF9300D00F92EF
:1010B000CDB7DEB78A838A81882F90E0982F882762
:1010C00022E330E0B9010E94D33CCB0181508983F7
:1010D0000F900F900F90CF91DF910895DF93CF93F2
:1010E0000F92CDB7DEB78983E3E4F0E08981808396
:1010F0000F90CF91DF910895DF93CF93CDB7DEB7F7
:10110000A5E4B0E0E5E4F0E08081887F8C93CF91A6
:10111000DF910895DF93CF93CDB7DEB7CF91DF9105
:101120000895DF93CF9300D0CDB7DEB79A8389833C
:1011300089819A81009731F089819A819093270360
:10114000809326030F900F90CF91DF910895DF9346
:10115000CF9300D0CDB7DEB79A83898389819A81F6
:10116000009731F089819A81909327038093260319
:101170000F900F90CF91DF9108951F920F920FB6AD
:101180000F9211242F933F934F935F936F937F930D
:101190008F939F93AF93BF93EF93FF93DF93CF937F
:1011A000CDB7DEB7E0912603F09127030995CF91E3
:1011B000DF91FF91EF91BF91AF919F918F917F91BF
:1011C0006F915F914F913F912F910F900FBE0F90B4
:1011D0001F9018951F920F920FB60F9211242F9304
:1011E0003F934F935F936F937F938F939F93AF93AF
:1011F000BF93EF93FF93DF93CF93CDB7DEB7E0912B
:101200002603F09127030995CF91DF91FF91EF918C
:10121000BF91AF919F918F917F916F915F914F910E
:101220003F912F910F900FBE0F901F901895DF9355
:10123000CF93CDB7DEB7AFE4B0E0EFE4F0E080816C
:1012400080688C93AFE4B0E0EFE4F0E080818E7FC3
:101250008C93AFE4B0E0EFE4F0E0808182608C93A7
:10126000AEE4B0E0EEE4F0E0808188608C93AEE420
:10127000B0E0EEE4F0E0808180618C93CF91DF916B
:101280000895DF93CF93CDB7DEB7AEE4B0E0EEE4E0
:10129000F0E08081887F8C93AEE4B0E0EEE4F0E093
:1012A000808183608C93CF91DF910895DF93CF93FA
:1012B00000D0CDB7DEB79A838983ECE4F0E0898172
:1012C00080830F900F90CF91DF910895DF93CF939C
:1012D00000D0CDB7DEB79A838983E6E4F0E0898158
:1012E0009A81918380830F900F90CF91DF91089521
:1012F000DF93CF93CDB7DEB72B970FB6F894DEBF51
:101300000FBECDBF8F83488759876A877B878885C3
:101310009985AA85BB859C01AD01220F331F441F0F
:10132000551F220F331F441F551F80E492E4AFE086
:10133000B0E0BC01CD010E94E63CDA01C901019791
:101340009E838D838D819E810E9466098F81282FC7
:1013500030E08D819E81AC01249FC001259F900DBE
:10136000349F900D112424E630E0B9010E94BF3C67
:10137000CB01CC01A0E0B0E089839A83AB83BC832E
:1013800089819A812B960FB6F894DEBF0FBECDBF30
:10139000CF91DF910895DF93CF9300D0CDB7DEB723
:1013A0009A838983EAE4F0E089819A81918380833A
:1013B0000F900F90CF91DF910895DF93CF93CDB72A
:1013C000DEB7AEE4B0E0EEE4F0E08081887F8C939D
:1013D000CF91DF910895DF93CF93CDB7DEB7CF9153
:1013E000DF910895DF93CF9300D0CDB7DEB79A8316
:1013F000898389819A81009731F089819A819093BC
:101400002903809328030F900F90CF91DF910895C7
:10141000DF93CF9300D0CDB7DEB79A8389838981DC
:101420009A81009731F089819A8190932B03809360
:101430002A030F900F90CF91DF910895DF93CF9300
:1014400000D0CDB7DEB79A83898389819A810097CE
:1014500031F089819A8190932D0380932C030F9012
:101460000F90CF91DF9108951F920F920FB60F92B8
:1014700011242F933F934F935F936F937F938F9399
:101480009F93AF93BF93EF93FF93DF93CF93CDB72A
:10149000DEB7E0912803F09129030995CF91DF9100
:1014A000FF91EF91BF91AF919F918F917F916F913C
:1014B0005F914F913F912F910F900FBE0F901F9012
:1014C00018951F920F920FB60F9211242F933F93EE
:1014D0004F935F936F937F938F939F93AF93BF933C
:1014E000EF93FF93DF93CF93CDB7DEB7E0912A035D
:1014F000F0912B030995CF91DF91FF91EF91BF916F
:10150000AF919F918F917F916F915F914F913F919B
:101510002F910F900FBE0F901F9018951F920F9252
:101520000FB60F9211242F933F934F935F936F93B6
:101530007F938F939F93AF93BF93EF93FF93DF932B
:10154000CF93CDB7DEB7E0912C03F0912D03099531
:10155000CF91DF91FF91EF91BF91AF919F918F91CB
:101560007F916F915F914F913F912F910F900FBE9F
:101570000F901F901895DF93CF93CDB7DEB7A3E5FB
:10158000B0E0E3E5F0E0808180628C93A3E5B0E019
:10159000E3E5F0E0808180648C93A3E5B0E0E3E5CF
:1015A000F0E0808188608C93CF91DF910895DF9384
:1015B000CF93CDB7DEB7A3E5B0E0E3E5F0E08081FF
:1015C000887F8C93A3E5B0E0E3E5F0E0808185605F
:1015D0008C93CF91DF910895DF93CF930F92CDB786
:1015E000DEB78983E2E5F0E0898180830F90CF91B7
:1015F000DF910895DF93CF9300D0CDB7DEB78A8314
:101600008A81882F90E0982F882724E630E0B9015E
:101610000E94D33CCB018150898389810F900F9028
:10162000CF91DF910895DF93CF9300D00F92CDB784
:10163000DEB78A838A81882F90E0982F882722E35B
:1016400030E0B9010E94D33CCB01815089830F90D7
:101650000F900F90CF91DF910895DF93CF930F926A
:10166000CDB7DEB78983ECE5F0E0898180830F9008
:10167000CF91DF910895DF93CF93CDB7DEB7A3E588
:10168000B0E0E3E5F0E08081887F8C93CF91DF913B
:101690000895DF93CF93CDB7DEB7CF91DF91089553
:1016A000DF93CF9300D0CDB7DEB79A83898389814A
:1016B0009A81009731F089819A8190932F038093CA
:1016C0002E030F900F90CF91DF910895DF93CF936A
:1016D00000D0CDB7DEB79A83898389819A8100973C
:1016E00031F089819A8190932F0380932E030F907C
:1016F0000F90CF91DF9108951F920F920FB60F9226
:1017000011242F933F934F935F936F937F938F9306
:101710009F93AF93BF93EF93FF93DF93CF93CDB797
:10172000DEB7E0912E03F0912F030995CF91DF9161
:10173000FF91EF91BF91AF919F918F917F916F91A9
:101740005F914F913F912F910F900FBE0F901F907F
:1017500018951F920F920FB60F9211242F933F935B
:101760004F935F936F937F938F939F93AF93BF93A9
:10177000EF93FF93DF93CF93CDB7DEB7E0912E03C6
:10178000F0912F030995CF91DF91FF91EF91BF91D8
:10179000AF919F918F917F916F915F914F913F9109
:1017A0002F910F900FBE0F901F901895DF93CF933E
:1017B000CDB7DEB7AFE4B0E0EFE4F0E080818E7F3C
:1017C0008C93AFE4B0E0EFE4F0E080818D7F8C9308
:1017D000AEE4B0E0EEE4F0E08081877F8C93AEE48D
:1017E000B0E0EEE4F0E080818F7E8C93AEE4B0E078
:1017F000EEE4F0E0808180648C93A9E5B0E0E9E557
:10180000F0E0808180628C93AEE4B0E0EEE4F0E042
:10181000808181608C93AEE4B0E0EEE4F0E0808102
:1018200082608C93AEE4B0E0EEE4F0E080818B7FE8
:101830008C93CF91DF910895DF93CF9300D0CDB7F4
:10184000DEB79A8389830F900F90CF91DF9108952F
:10185000DF93CF9300D0CDB7DEB79A8389830F9003
:101860000F90CF91DF9108951F920F920FB60F92B4
:101870001124DF93CF93CDB7DEB7CF91DF910F90D7
:101880000FBE0F901F901895DF93CF93CDB7DEB7A3
:10189000ADE2B0E0EDE2F0E0808180628C93ADE2F9
:1018A000B0E0EDE2F0E080818F7E8C93ADE2B0E0BD
:1018B000EDE2F0E0808188608C93ADE2B0E0EDE293
:1018C000F0E0808184608C93ADE2B0E0EDE2F0E086
:1018D000808180648C93CF91DF910895DF93CF93C3
:1018E000CDB7DEB7ADE2B0E0EDE2F0E08081806838
:1018F0008C93CF91DF910895DF93CF930F92CDB763
:10190000DEB78983EEE2F0E0808182958695869548
:101910008370882F90E081709070882399F7EFE2B0
:10192000F0E089818083EEE2F0E080818823DCF7BB
:10193000EFE2F0E080810F90CF91DF910895DF9387
:10194000CF930F92CDB7DEB78983EEE2F0E08081CE
:101950008295869586958370882F90E0817090702F
:10196000882399F7EFE2F0E0898180830F90CF918F
:10197000DF910895DF93CF9300D0CDB7DEB79A8380
:10198000898389819A8190933103809330030F90EA
:101990000F90CF91DF9108951F920F920FB60F9283
:1019A00011242F933F934F935F936F937F938F9364
:1019B0009F93AF93BF93EF93FF93DF93CF93CDB7F5
:1019C000DEB7E0913003F0913103AFE2B0E08C91EB
:1019D0000995CF91DF91FF91EF91BF91AF919F91C9
:1019E0008F917F916F915F914F913F912F910F90C8
:1019F0000FBE0F901F901895DF93CF930F92CDB726
:101A0000DEB78983898188232CF0E2E2F0E08981C6
:101A1000880F8083E0E2F0E08CE08083A1E2B0E018
:101A2000E1E2F0E080818E7F8C93A1E2B0E0E1E220
:101A3000F0E080818D7F8C93A6E5B0E0E6E5F0E0F4
:101A4000808180648C93A6E5B0E0E6E5F0E08081DB
:101A500084608C930F90CF91DF910895DF93CF93A3
:101A6000CDB7DEB7A6E5B0E0E6E5F0E080818062C4
:101A70008C93A6E5B0E0E6E5F0E0808184608C938D
:101A8000A6E5B0E0E6E5F0E0808180688C93E6E5CD
:101A9000F0E080818823DCF7E1E2F0E08081882FAC
:101AA00090E0887F907088309105B1F7CF91DF91F9
:101AB0000895DF93CF93CDB7DEB7A6E5B0E0E6E5B6
:101AC000F0E0808180628C93A6E5B0E0E6E5F0E08E
:101AD000808184608C93A6E5B0E0E6E5F0E080814B
:101AE00080688C93E6E5F0E080818823DCF7E1E212
:101AF000F0E08081882F90E0887F907080319105A0
:101B0000B1F7CF91DF910895DF93CF93CDB7DEB7D3
:101B1000A6E5B0E0E6E5F0E0808180618C93A6E583
:101B2000B0E0E6E5F0E0808184608C93A6E5B0E06B
:101B3000E6E5F0E0808180688C93CF91DF91089595
:101B4000DF93CF930F92CDB7DEB78983E3E2F0E066
:101B50008981880F8083A3E2B0E0E3E2F0E0808136
:101B60008E7F8C93A6E5B0E0E6E5F0E080818F7D86
:101B70008C93A6E5B0E0E6E5F0E0808180688C9388
:101B8000A6E5B0E0E6E5F0E0808184608C93E6E5D0
:101B9000F0E080818823DCF7E1E2F0E08081882FAB
:101BA00090E0887F907088319105B1F70F90CF91C8
:101BB000DF910895DF93CF930F92CDB7DEB789837E
:101BC000E3E2F0E08981880F8083A3E2B0E0E3E202
:101BD000F0E0808181608C93A6E5B0E0E6E5F0E07E
:101BE00080818F7D8C93A6E5B0E0E6E5F0E0808112
:101BF00084608C93A6E5B0E0E6E5F0E08081806843
:101C00008C93E6E5F0E080818823DCF7E1E2F0E008
:101C10008081882F90E0887F907080349105B1F7A3
:101C20000F90CF91DF910895DF93CF930F92CDB7AF
:101C3000DEB78983E3E2F0E089818083A6E5B0E046
:101C4000E6E5F0E0808184608C93A6E5B0E0E6E50F
:101C5000F0E0808180688C93E6E5F0E08081882365
:101C6000DCF7E1E2F0E08081882F90E0887F9070DF
:101C700088329105B1F70F90CF91DF910895DF93EE
:101C8000CF93CDB7DEB7A6E5B0E0E6E5F0E0808122
:101C900080688C93A6E5B0E0E6E5F0E080818460A2
:101CA0008C93A6E5B0E0E6E5F0E0808180648C935B
:101CB000E6E5F0E080818823DCF7E1E2F0E0808176
:101CC000882F90E0887F907080359105B1F7E3E22E
:101CD000F0E08081CF91DF910895DF93CF93CDB76E
:101CE000DEB7A6E5B0E0E6E5F0E0808184608C93A5
:101CF000A6E5B0E0E6E5F0E0808180688C93CF91C6
:101D0000DF910895DF93CF93CDB7DEB7AFE5B0E0B5
:101D1000EFE5F0E0808180688C93CF91DF910895AA
:101D2000DF93CF93CDB7DEB7AFE5B0E0EFE5F0E0FE
:101D300080818F778C93CF91DF910895DF93CF933C
:101D4000CDB7DEB72A970FB6F894DEBF0FBECDBF72
:101D500089836A838981282F30E03A87298789859A
:101D60009A858130910509F46DC029853A85223024
:101D7000310509F4C9C089859A85009709F0E9C041
:101D80008A81282F30E038872F838F819885813092
:101D9000910521F12F813885223031052CF48F8176
:101DA0009885009761F046C02F8138852230310533
:101DB00021F18F8198858330910571F13BC0A5E5B4
:101DC000B0E0E5E5F0E0808181608C93A5E5B0E0CE
:101DD000E5E5F0E0808182608C932CC0A5E5B0E061
:101DE000E5E5F0E080818E7F8C93A5E5B0E0E5E548
:101DF000F0E0808182608C931DC0A5E5B0E0E5E550
:101E0000F0E080818E7F8C93A5E5B0E0E5E5F0E021
:101E100080818D7F8C930EC0A5E5B0E0E5E5F0E014
:101E2000808181608C93A5E5B0E0E5E5F0E08081FC
:101E30008D7F8C93ABE5B0E0EBE5F0E080818064D2
:101E40008C9387C08A81282F30E03E832D838D813B
:101E50009E818130910521F12D813E812230310515
:101E60002CF48D819E81009761F046C02D813E81CA
:101E70002230310521F18D819E818330910571F1F0
:101E80003BC0A5E5B0E0E5E5F0E0808184608C939F
:101E9000A5E5B0E0E5E5F0E0808188608C932CC09A
:101EA000A5E5B0E0E5E5F0E080818B7F8C93A5E5CA
:101EB000B0E0E5E5F0E0808188608C931DC0A5E589
:101EC000B0E0E5E5F0E080818B7F8C93A5E5B0E0A4
:101ED000E5E5F0E08081877F8C930EC0A5E5B0E05A
:101EE000E5E5F0E0808184608C93A5E5B0E0E5E570
:101EF000F0E08081877F8C93ABE5B0E0EBE5F0E02C
:101F0000808180688C9325C08A81282F30E03C83B3
:101F10002B838B819C81009731F02B813C81213078
:101F2000310549F00FC0A4E5B0E0E4E5F0E08081C0
:101F300080648C9307C0A4E5B0E0E4E5F0E0808124
:101F40008F7B8C93ABE5B0E0EBE5F0E080818062C5
:101F50008C932A960FB6F894DEBF0FBECDBFCF91FB
:101F6000DF910895DF93CF9300D00F92CDB7DEB706
:101F700089838981282F30E03B832A838A819B8152
:101F80008130910589F02A813B8122303105A1F011
:101F90008A819B810097B9F4ABE5B0E0EBE5F0E016
:101FA00080818F7B8C930FC0ABE5B0E0EBE5F0E078
:101FB00080818F778C9307C0ABE5B0E0EBE5F0E074
:101FC00080818F7D8C930F900F900F90CF91DF9138
:101FD0000895DF93CF9300D0CDB7DEB79A8389837E
:101FE00089819A8190933303809332030F900F90ED
:101FF000CF91DF9108951F920F920FB60F92112487
:102000002F933F934F935F936F937F938F939F9300
:10201000AF93BF93EF93FF93DF93CF93CDB7DEB72B
:102020008091320390913303009729F0E0913203BD
:10203000F09133030995CF91DF91FF91EF91BF911B
:10204000AF919F918F917F916F915F914F913F9150
:102050002F910F900FBE0F901F901895DF93CF9385
:10206000CDB7DEB728970FB6F894DEBF0FBECDBF51
:1020700089836A838A81882309F0D9C089818695FA
:1020800086958695282F30E038872F838F81988515
:102090008130910509F444C02F8138852230310503
:1020A0002CF48F819885009771F07EC22F8138853E
:1020B0002230310509F461C08F8198858330910504
:1020C00009F488C071C2AAE3B0E0EAE3F0E08081DD
:1020D000482F8981882F90E09C012770307081E023
:1020E00090E002C0880F991F2A95E2F7842B8C9309
:1020F000ABE3B0E0EBE3F0E08081482F8981882FEB
:1021000090E09C012770307081E090E0022E02C0C8
:10211000880F991F0A94E2F7809584238C9344C218
:10212000A7E3B0E0E7E3F0E08081482F8981882FC2
:1021300090E09C012770307081E090E002C0880F31
:10214000991F2A95E2F7842B8C93A8E3B0E0E8E38B
:10215000F0E08081482F8981882F90E09C012770D2
:10216000307081E090E0022E02C0880F991F0A941F
:10217000E2F7809584238C9317C2A4E3B0E0E4E3F4
:10218000F0E08081482F8981882F90E09C012770A2
:10219000307081E090E002C0880F991F2A95E2F725
:1021A000842B8C93A5E3B0E0E5E3F0E08081482F39
:1021B0008981882F90E09C012770307081E090E049
:1021C000022E02C0880F991F0A94E2F7809584239B
:1021D0008C93EAC1A1E3B0E0E1E3F0E08081482F15
:1021E0008981882F90E09C012770307081E090E019
:1021F00002C0880F991F2A95E2F7842B8C93A2E3E3
:10220000B0E0E2E3F0E08081482F8981882F90E000
:102210009C012770307081E090E0022E02C0880F90
:10222000991F0A94E2F7809584238C93BDC18A811B
:10223000813009F0DDC08981869586958695282FA5
:1022400030E03E832D838D819E818130910509F49C
:1022500045C02D813E81223031052CF48D819E8137
:10226000009771F0A1C12D813E812230310509F422
:1022700063C08D819E818330910509F48BC094C128
:10228000AAE3B0E0EAE3F0E08081482F8981882F5B
:1022900090E09C012770307081E090E002C0880FD0
:1022A000991F2A95E2F7809584238C93ABE3B0E0E5
:1022B000EBE3F0E08081482F8981882F90E09C013A
:1022C0002770307081E090E0022E02C0880F991FC5
:1022D0000A94E2F7809584238C9366C1A7E3B0E06B
:1022E000E7E3F0E08081482F8981882F90E09C010E
:1022F0002770307081E090E002C0880F991F2A9506
:10230000E2F7809584238C93A8E3B0E0E8E3F0E063
:102310008081482F8981882F90E09C012770307040
:1023200081E090E0022E02C0880F991F0A94E2F724
:10233000809584238C9338C1A4E3B0E0E4E3F0E01B
:102340008081482F8981882F90E09C012770307010
:1023500081E090E002C0880F991F2A95E2F78095EE
:1023600084238C93A5E3B0E0E5E3F0E08081482F7F
:102370008981882F90E09C012770307081E090E087
:10238000022E02C0880F991F0A94E2F780958423D9
:102390008C930AC1A1E3B0E0E1E3F0E08081482F33
:1023A0008981882F90E09C012770307081E090E057
:1023B00002C0880F991F2A95E2F7809584238C9399
:1023C000A2E3B0E0E2E3F0E08081482F8981882F2A
:1023D00090E09C012770307081E090E0022E02C0F6
:1023E000880F991F0A94E2F7809584238C93DCC0B0
:1023F0008A81823009F0D8C0898186958695869534
:10240000282F30E03C832B838B819C818130910588
:1024100009F444C02B813C81223031052CF48B819E
:102420009C81009771F0C0C02B813C812230310526
:1024300009F461C08B819C818330910509F488C0C7
:10244000B3C0AAE3B0E0EAE3F0E08081482F8981DD
:10245000882F90E09C012770307081E090E002C0EE
:10246000880F991F2A95E2F7809584238C93ABE31C
:10247000B0E0EBE3F0E08081482F8981882F90E085
:102480009C012770307081E090E0022E02C0880F1E
:10249000991F0A94E2F7842B8C9386C0A7E3B0E0DF
:1024A000E7E3F0E08081482F8981882F90E09C014C
:1024B0002770307081E090E002C0880F991F2A9544
:1024C000E2F7809584238C93A8E3B0E0E8E3F0E0A2
:1024D0008081482F8981882F90E09C01277030707F
:1024E00081E090E0022E02C0880F991F0A94E2F763
:1024F000842B8C9359C0A4E3B0E0E4E3F0E0808146
:10250000482F8981882F90E09C012770307081E0EE
:1025100090E002C0880F991F2A95E2F780958423E6
:102520008C93A5E3B0E0E5E3F0E08081482F89815A
:10253000882F90E09C012770307081E090E0022E9F
:1025400002C0880F991F0A94E2F7842B8C932CC049
:10255000A1E3B0E0E1E3F0E08081482F8981882F9A
:1025600090E09C012770307081E090E002C0880FFD
:10257000991F2A95E2F7809584238C93A2E3B0E01B
:10258000E2E3F0E08081482F8981882F90E09C0170
:102590002770307081E090E0022E02C0880F991FF2
:1025A0000A94E2F7842B8C9328960FB6F894DEBF3A
:1025B0000FBECDBFCF91DF910895DF93CF9300D0B1
:1025C0000F92CDB7DEB780E290E09B838A831982B9
:1025D00019C08981882F90E0880F991FFC01E85667
:1025E000FD4F20818981882F90E0880F991FFC0181
:1025F000E756FD4F9081822F692F0E942E1089810E
:102600008F5F89838981282F30E08A819B812817F9
:102610003907FCF20F900F900F90CF91DF91089542
:10262000DF93CF9300D000D000D0CDB7DEB7898341
:102630006A838A81813009F07FC089818695869579
:102640008695282F30E03E832D838D819E818130B9
:10265000910569F12D813E81223031052CF48D8167
:102660009E81009769F0EAC02D813E8122303105BC
:10267000A9F18D819E818330910509F446C0DEC0A9
:10268000ABE3B0E0EBE3F0E08081482F8981882F55
:1026900090E09C012770307081E090E0022E02C033
:1026A000880F991F0A94E2F7842B8C93C7C0A8E384
:1026B000B0E0E8E3F0E08081482F8981882F90E046
:1026C0009C012770307081E090E0022E02C0880FDC
:1026D000991F0A94E2F7842B8C93B0C0A5E3B0E075
:1026E000E5E3F0E08081482F8981882F90E09C010C
:1026F0002770307081E090E0022E02C0880F991F91
:102700000A94E2F7842B8C9399C0A2E3B0E0E2E351
:10271000F0E08081482F8981882F90E09C0127700C
:10272000307081E090E0022E02C0880F991F0A9459
:10273000E2F7842B8C9382C0898186958695869555
:10274000282F30E03C832B838B819C818130910545
:1027500071F12B813C81223031052CF48B819C81DD
:10276000009769F06BC02B813C8122303105B9F1B3
:102770008B819C818330910509F449C05FC0ABE334
:10278000B0E0EBE3F0E08081482F8981882F90E072
:102790009C012770307081E090E0022E02C0880F0B
:1027A000991F0A94E2F7809584238C9347C0A8E38D
:1027B000B0E0E8E3F0E08081482F8981882F90E045
:1027C0009C012770307081E090E0022E02C0880FDB
:1027D000991F0A94E2F7809584238C932FC0A5E378
:1027E000B0E0E5E3F0E08081482F8981882F90E018
:1027F0009C012770307081E090E0022E02C0880FAB
:10280000991F0A94E2F7809584238C9317C0A2E362
:10281000B0E0E2E3F0E08081482F8981882F90E0EA
:102820009C012770307081E090E0022E02C0880F7A
:10283000991F0A94E2F7809584238C9326960FB60D
:10284000F894DEBF0FBECDBFCF91DF910895DF9327
:10285000CF9300D000D0CDB7DEB78A8319828A81AA
:10286000869586958695282F30E03C832B834B8177
:102870005C814130510559F18B819C8182309105F9
:1028800034F42B813C812115310569F05BC04B810B
:102890005C814230510579F18B819C8183309105B7
:1028A00009F43DC04FC0E9E3F0E08081282F30E01B
:1028B0008A81882F90E087709070A90102C0559599
:1028C00047958A95E2F7CA01817089833BC0E6E3A8
:1028D000F0E08081282F30E08A81882F90E0877097
:1028E0009070A90102C0559547958A95E2F7CA01F3
:1028F0008170898327C0E3E3F0E08081282F30E0F6
:102900008A81882F90E087709070A90102C0559548
:1029100047958A95E2F7CA018170898313C0E0E385
:10292000F0E08081282F30E08A81882F90E0877046
:102930009070A90102C0559547958A95E2F7CA01A2
:102940008170898389810F900F900F900F90CF91A4
:10295000DF910895DF93CF9300D00F92CDB7DEB70C
:1029600089838981869586958695282F30E03B83DB
:102970002A838A819B818130910569F12A813B817B
:10298000223031052CF48A819B81009769F067C061
:102990002A813B8122303105A9F18A819B818330D4
:1029A000910509F446C05BC0ABE3B0E0EBE3F0E0B7
:1029B0008081482F8981882F90E09C01277030709A
:1029C00081E090E0022E02C0880F991F0A94E2F77E
:1029D00084278C9344C0A8E3B0E0E8E3F0E0808172
:1029E000482F8981882F90E09C012770307081E00A
:1029F00090E0022E02C0880F991F0A94E2F7842704
:102A00008C932DC0A5E3B0E0E5E3F0E08081482F92
:102A10008981882F90E09C012770307081E090E0E0
:102A2000022E02C0880F991F0A94E2F784278C9324
:102A300016C0A2E3B0E0E2E3F0E08081482F898194
:102A4000882F90E09C012770307081E090E0022E8A
:102A500002C0880F991F0A94E2F784278C930F9085
:102A60000F900F90CF91DF910895DF93CF9300D017
:102A700000D0CDB7DEB789836A838981282F30E003
:102A80003C832B838B819C8181309105D1F02B81FC
:102A90003C81223031052CF48B819C81009761F0C0
:102AA0001EC02B813C812230310581F08B819C81BD
:102AB0008330910581F013C0EBE3F0E08A818083DD
:102AC0000EC0E8E3F0E08A81808309C0E5E3F0E02E
:102AD0008A81808304C0E2E3F0E08A8180830F90E2
:102AE0000F900F900F90CF91DF910895DF93CF93C8
:102AF00000D000D0CDB7DEB78A8319828A81282F13
:102B000030E03C832B838B819C8181309105D1F017
:102B10002B813C81223031052CF48B819C810097E4
:102B200061F01EC02B813C812230310581F08B8108
:102B30009C818330910581F013C0E9E3F0E080814E
:102B400089830EC0E6E3F0E08081898309C0E3E376
:102B5000F0E08081898304C0E0E3F0E08081898334
:102B600089810F900F900F900F90CF91DF91089572
:102B7000DF93CF9300D000D0CDB7DEB789836A83CF
:102B80008981282F30E03C832B838B819C8181308D
:102B90009105C1F02B813C812230310511F18B81EF
:102BA0009C81009761F5A7E2B0E0E7E2F0E0808168
:102BB0008F7B8C93A7E2B0E0E7E2F0E080818F7733
:102BC0008C931DC0A7E2B0E0E7E2F0E08081806472
:102BD0008C93A7E2B0E0E7E2F0E080818F778C93FE
:102BE0000EC0A7E2B0E0E7E2F0E0808180648C9361
:102BF000A7E2B0E0E7E2F0E0808180688C93A6E293
:102C0000B0E0E6E2F0E08081887F8C938A81877073
:102C10008A83A6E2B0E0E6E2F0E090818A81892B27
:102C20008C93A6E2B0E0E6E2F0E0808180688C93CD
:102C30000F900F900F900F90CF91DF910895DF9339
:102C4000CF930F92CDB7DEB78983A7E2B0E0E7E27A
:102C5000F0E08081807E8C93898187708983A7E2F0
:102C6000B0E0E7E2F0E090818981892B8C93A6E2C5
:102C7000B0E0E6E2F0E0808180648C93E6E2F0E090
:102C800080818295869586958370882F90E08170EB
:102C90009070882399F7E4E2F0E0808191810F90B1
:102CA000CF91DF910895DF93CF9300D000D00F92A2
:102CB000CDB7DEB78D838D810E941F169A838983DD
:102CC00089819A81CC01A0E0B0E028E833E140E0BE
:102CD00050E0BC01CD010E94943CDC01CB012FEF00
:102CE00033E040E050E0BC01CD010E94E63CDA0157
:102CF000C9019C838B838B819C810F900F900F90D7
:102D00000F900F90CF91DF910895DF93CF93CDB7C0
:102D1000DEB783E061E00E94101382E061E00E9470
:102D200010138DE061E00E9410138EE061E00E94BC
:102D3000101388E060E00E94101389E060E00E94B8
:102D400010138AE060E00E9410138CE060E00E94A3
:102D50001013CF91DF910895DF93CF9300D000D06F
:102D60000F92CDB7DEB78D838D819AE0692F0E94D7
:102D7000B33C892F8C838D819AE0692F0E94B33CEC
:102D80008B831A8235C083E060E00E94101382E0DA
:102D900061E00E9410138DE061E00E9410138EE04C
:102DA00061E00E9410138C81982F917088E0692F48
:102DB0000E9410138C818695982F917089E0692F5D
:102DC0000E9410138C8186958695982F91708AE0C9
:102DD000692F0E9410138C81869586958695982F71
:102DE00091708CE0692F0E9410138A818F5F8A8313
:102DF0008A81883C40F2198235C083E061E00E94FC
:102E0000101382E060E00E9410138DE061E00E94E8
:102E100010138EE061E00E9410138B81982F917047
:102E200088E0692F0E9410138B818695982F9170EE
:102E300089E0692F0E9410138B8186958695982FC3
:102E400091708AE0692F0E9410138B818695869578
:102E50008695982F91708CE0692F0E9410138981BC
:102E60008F5F89838981883C40F20F900F900F908B
:102E70000F900F90CF91DF910895DF93CF9300D003
:102E800000D0CDB7DEB780E00E941F169C838B83F5
:102E90008B819C81CC01A0E0B0E028EE33E040E0E3
:102EA00050E0BC01CD010E94943CDC01CB01072E17
:102EB0007BE0B695A795979587957A95D1F7702D74
:102EC0009A83898389819A810F900F900F900F9038
:102ED000CF91DF910895DF93CF9300D000D0CDB78D
:102EE000DEB780E00E9453169C838B838B819C818C
:102EF0009A83898389819A812AE030E0B9010E940E
:102F0000BF3C8330910578F489819A812AE030E0D2
:102F1000B9010E94BF3C9C0189819A81821B930B5D
:102F20009A83898361C089819A812AE030E0B9015E
:102F30000E94BF3C83309105D0F089819A812AE0BC
:102F400030E0B9010E94BF3C8530910580F4898151
:102F50009A812AE030E0B9010E94BF3C9C0189813E
:102F60009A81821B930B05969A8389833DC0898140
:102F70009A812AE030E0B9010E94BF3C8630910579
:102F8000D0F089819A812AE030E0B9010E94BF3CEB
:102F90008830910580F489819A812AE030E0B90176
:102FA0000E94BF3C9C0189819A81821B930B0596EC
:102FB0009A83898319C089819A812AE030E0B90116
:102FC0000E94BF3C8830910578F089819A812AE07F
:102FD00030E0B9010E94BF3C9C0189819A81821B2B
:102FE000930B0A969A83898389819A810F900F9017
:102FF0000F900F90CF91DF910895DF93CF9300D082
:1030000000D0CDB7DEB780E00E941F169C838B8373
:103010008B819C81CC01A0E0B0E028EE33E040E061
:1030200050E0BC01CD010E94943CDC01CB0129E9B8
:1030300033E040E050E0BC01CD010E94E63CDA0103
:10304000C901855A9F4F9A83898389819A810F90FC
:103050000F900F900F90CF91DF910895DF93CF9352
:10306000CDB7DEB70E941709CF91DF910895DF93A6
:10307000CF9300D0CDB7DEB78A838A81992787FDA9
:1030800090959C01220F331FC901880F991F880F4B
:10309000991F820F931F24EB30E0B9010E94D33CAB
:1030A000CB018B5F898389818B3010F08AE0898323
:1030B000898144E650E060E070E00E9478090E9457
:1030C000CB090E9441090F900F90CF91DF91089595
:1030D000DF93CF93CDB7DEB70E94DD09CF91DF91AB
:1030E0000895DF93CF93CDB7DEB7E9970FB6F89485
:1030F000DEBF0FBECDBF89AF86E060E00E94101337
:1031000089AD982F991F9927991F81E0692F0E94F7
:10311000101389AD8295869586958370982F91704E
:1031200082E0692F0E94101389AD82958695877081
:10313000982F917083E0692F0E94101389AD8295BA
:103140008F70982F917084E0692F0E94101385E092
:1031500061E00E94101380E090E0A0E8BFE38DAB37
:103160009EABAFABB8AF6DA97EA98FA998AD20E09B
:1031700030E04AEF54E40E941F02DC01CB0189AB2E
:103180009AABABABBCAB69A97AA98BA99CA920E08F
:1031900030E040E85FE30E94A90388232CF481E03B
:1031A00090E098AB8FA73FC069A97AA98BA99CA989
:1031B00020E03FEF4FE757E40E94490318164CF513
:1031C0006DA97EA98FA998AD20E030E040E251E4DE
:1031D0000E941F02DC01CB01BC01CD010E9449000D
:1031E000DC01CB0198AB8FA70FC088EC90E09EA7C5
:1031F0008DA78DA59EA50197F1F79EA78DA78FA5F9
:1032000098A9019798AB8FA78FA598A9009769F700
:1032100014C069A97AA98BA99CA90E944900DC0164
:10322000CB0198AB8FA78FA598A99CA78BA78BA53F
:103230009CA50197F1F79CA78BA785E060E00E9411
:10324000101380E090E0A0E8BFE38FA398A7A9A7A0
:10325000BAA76FA178A589A59AA520E030E04AEF2A
:1032600054E40E941F02DC01CB018BA39CA3ADA3FD
:10327000BEA36BA17CA18DA19EA120E030E040E81F
:103280005FE30E94A90388232CF481E090E09AA3D5
:1032900089A33FC06BA17CA18DA19EA120E03FEF3F
:1032A0004FE757E40E94490318164CF56FA178A523
:1032B00089A59AA520E030E040E251E40E941F0277
:1032C000DC01CB01BC01CD010E944900DC01CB0136
:1032D0009AA389A30FC088EC90E098A38F8F8F8D5D
:1032E00098A10197F1F798A38F8F89A19AA10197CF
:1032F0009AA389A389A19AA1009769F714C06BA129
:103300007CA18DA19EA10E944900DC01CB019AA362
:1033100089A389A19AA19E8F8D8F8D8D9E8D0197F6
:10332000F1F79E8F8D8F89AD869586958695982F1E
:10333000917081E0692F0E94101389AD8695869562
:10334000982F917082E0692F0E94101389AD8695A5
:10335000982F917083E0692F0E94101389AD982FE8
:10336000917084E0692F0E94101385E061E00E9453
:10337000101380E090E0A0E8BFE3898F9A8FAB8FB5
:10338000BC8F698D7A8D8B8D9C8D20E030E04AEF6B
:1033900054E40E941F02DC01CB018D8B9E8BAF8B0E
:1033A000B88F6D897E898F89988D20E030E040E864
:1033B0005FE30E94A90388232CF481E090E09C8BBA
:1033C0008B8B3FC06D897E898F89988D20E03FEF80
:1033D0004FE757E40E94490318164CF5698D7A8D22
:1033E0008B8D9C8D20E030E040E251E40E941F0272
:1033F000DC01CB01BC01CD010E944900DC01CB0105
:103400009C8B8B8B0FC088EC90E09A8B898B898981
:103410009A890197F1F79A8B898B8B899C890197FF
:103420009C8B8B8B8B899C89009769F714C06D8965
:103430007E898F89988D0E944900DC01CB019C8B8D
:103440008B8B8B899C89988B8F878F859889019727
:10345000F1F7988B8F8785E060E00E94101380E081
:1034600090E0A0E8BFE38B879C87AD87BE876B8524
:103470007C858D859E8520E030E04AEF54E40E94F3
:103480001F02DC01CB018F839887A987BA876F81E0
:10349000788589859A8520E030E040E85FE30E94E6
:1034A000A90388232CF481E090E09E838D833FC0A4
:1034B0006F81788589859A8520E03FEF4FE757E453
:1034C0000E94490318164CF56B857C858D859E8579
:1034D00020E030E040E251E40E941F02DC01CB0119
:1034E000BC01CD010E944900DC01CB019E838D838C
:1034F0000FC088EC90E09C838B838B819C8101972B
:10350000F1F79C838B838D819E8101979E838D83B0
:103510008D819E81009769F714C06F8178858985B8
:103520009A850E944900DC01CB019E838D838D81A9
:103530009E819A83898389819A810197F1F79A8381
:103540008983E9960FB6F894DEBF0FBECDBFCF9149
:10355000DF910895DF93CF93CDB7DEB7E9970FB62C
:10356000F894DEBF0FBECDBF89AF86E061E00E9458
:10357000101389AD982F991F9927991F81E0692F02
:103580000E94101389AD8295869586958370982F39
:10359000917082E0692F0E94101389AD8295869503
:1035A0008770982F917083E0692F0E94101389AD66
:1035B00082958F70982F917084E0692F0E9410136C
:1035C00085E061E00E94101380E090E0A0E8BFE396
:1035D0008DAB9EABAFABB8AF6DA97EA98FA998ADEF
:1035E00020E030E04AEF54E40E941F02DC01CB01EE
:1035F00089AB9AABABABBCAB69A97AA98BA99CA9E7
:1036000020E030E040E85FE30E94A90388232CF427
:1036100081E090E098AB8FA73FC069A97AA98BA9F8
:103620009CA920E03FEF4FE757E40E94490318169A
:103630004CF56DA97EA98FA998AD20E030E040E25D
:1036400051E40E941F02DC01CB01BC01CD010E94AC
:103650004900DC01CB0198AB8FA70FC088EC90E04C
:103660009EA78DA78DA59EA50197F1F79EA78DA773
:103670008FA598A9019798AB8FA78FA598A90097B8
:1036800069F714C069A97AA98BA99CA90E9449006D
:10369000DC01CB0198AB8FA78FA598A99CA78BA71E
:1036A0008BA59CA50197F1F79CA78BA785E060E00F
:1036B0000E94101380E090E0A0E8BFE38FA398A7DA
:1036C000A9A7BAA76FA178A589A59AA520E030E09F
:1036D0004AEF54E40E941F02DC01CB018BA39CA3A0
:1036E000ADA3BEA36BA17CA18DA19EA120E030E083
:1036F00040E85FE30E94A90388232CF481E090E076
:103700009AA389A33FC06BA17CA18DA19EA120E0BB
:103710003FEF4FE757E40E94490318164CF56FA19D
:1037200078A589A59AA520E030E040E251E40E9406
:103730001F02DC01CB01BC01CD010E944900DC016C
:10374000CB019AA389A30FC088EC90E098A38F8F38
:103750008F8D98A10197F1F798A38F8F89A19AA1D6
:1037600001979AA389A389A19AA1009769F714C028
:103770006BA17CA18DA19EA10E944900DC01CB011F
:103780009AA389A389A19AA19E8F8D8F8D8D9E8DDD
:103790000197F1F79E8F8D8F89AD869586958695D9
:1037A000982F917081E0692F0E94101389AD869542
:1037B0008695982F917082E0692F0E94101389AD31
:1037C0008695982F917083E0692F0E94101389AD20
:1037D000982F917084E0692F0E94101385E061E0BA
:1037E0000E94101380E090E0A0E8BFE3898F9A8FD9
:1037F000AB8FBC8F698D7A8D8B8D9C8D20E030E0F6
:103800004AEF54E40E941F02DC01CB018D8B9E8B9A
:10381000AF8BB88F6D897E898F89988D20E030E0DD
:1038200040E85FE30E94A90388232CF481E090E044
:103830009C8B8B8B3FC06D897E898F89988D20E012
:103840003FEF4FE757E40E94490318164CF5698D86
:103850007A8D8B8D9C8D20E030E040E251E40E9417
:103860001F02DC01CB01BC01CD010E944900DC013B
:10387000CB019C8B8B8B0FC088EC90E09A8B898B53
:1038800089899A890197F1F79A8B898B8B899C8911
:1038900001979C8B8B8B8B899C89009769F714C04F
:1038A0006D897E898F89988D0E944900DC01CB014A
:1038B0009C8B8B8B8B899C89988B8F878F85988924
:1038C0000197F1F7988B8F8785E060E00E941013D5
:1038D00080E090E0A0E8BFE38B879C87AD87BE8740
:1038E0006B857C858D859E8520E030E04AEF54E431
:1038F0000E941F02DC01CB018F839887A987BA87BA
:103900006F81788589859A8520E030E040E85FE323
:103910000E94A90388232CF481E090E09E838D838C
:103920003FC06F81788589859A8520E03FEF4FE71A
:1039300057E40E94490318164CF56B857C858D85EC
:103940009E8520E030E040E251E40E941F02DC014D
:10395000CB01BC01CD010E944900DC01CB019E835B
:103960008D830FC088EC90E09C838B838B819C813E
:103970000197F1F79C838B838D819E8101979E83B4
:103980008D838D819E81009769F714C06F81788542
:1039900089859A850E944900DC01CB019E838D8335
:1039A0008D819E819A83898389819A810197F1F71C
:1039B0009A838983E9960FB6F894DEBF0FBECDBF18
:1039C000CF91DF910895DF93CF93CDB7DEB76C979A
:1039D0000FB6F894DEBF0FBECDBF80E090E0A8E444
:1039E000B2E4898F9A8FAB8FBC8F698D7A8D8B8D66
:1039F0009C8D20E030E04AEF54E40E941F02DC017D
:103A0000CB018D8B9E8BAF8BB88F6D897E898F8913
:103A1000988D20E030E040E85FE30E94A90388230E
:103A20002CF481E090E09C8B8B8B3FC06D897E896C
:103A30008F89988D20E03FEF4FE757E40E944903BC
:103A400018164CF5698D7A8D8B8D9C8D20E030E0B9
:103A500040E251E40E941F02DC01CB01BC01CD0118
:103A60000E944900DC01CB019C8B8B8B0FC088EC42
:103A700090E09A8B898B89899A890197F1F79A8BC3
:103A8000898B8B899C8901979C8B8B8B8B899C89DB
:103A9000009769F714C06D897E898F89988D0E947F
:103AA0004900DC01CB019C8B8B8B8B899C89988B8B
:103AB0008F878F8598890197F1F7988B8F8782E0A0
:103AC0000E94711888E20E9471188CE00E9471189F
:103AD00081E00E94711880E090E0A0E8BFE38B874E
:103AE0009C87AD87BE876B857C858D859E8520E014
:103AF00030E04AEF54E40E941F02DC01CB018F83C7
:103B00009887A987BA876F81788589859A8520E00B
:103B100030E040E85FE30E94A90388232CF481E0B1
:103B200090E09E838D833FC06F81788589859A85DB
:103B300020E03FEF4FE757E40E94490318164CF589
:103B40006B857C858D859E8520E030E040E251E4E8
:103B50000E941F02DC01CB01BC01CD010E94490083
:103B6000DC01CB019E838D830FC088EC90E09C83A9
:103B70008B838B819C810197F1F79C838B838D8153
:103B80009E8101979E838D838D819E81009769F729
:103B900014C06F81788589859A850E944900DC016F
:103BA000CB019E838D838D819E819A8389838981B8
:103BB0009A810197F1F79A838983809136030E9455
:103BC00071186C960FB6F894DEBF0FBECDBFCF91C3
:103BD000DF910895DF93CF93CDB7DEB781E00E94E8
:103BE000711810923403109235038091360381309E
:103BF00051F481E00E94061E80E06FE00E941F1ECB
:103C00008FE080933503CF91DF910895DF93CF93B9
:103C10000F92CDB7DEB789838981882331F4109262
:103C2000360386E00E94711806C081E08093360357
:103C300084E00E9471180F90CF91DF910895DF9377
:103C4000CF9300D0CDB7DEB789836A838981809313
:103C500034038A818093350399818A81890F805842
:103C60000E9471180F900F90CF91DF910895DF930C
:103C7000CF930F92CDB7DEB7898380913603882327
:103C800009F040C0809135038431B1F5809134034F
:103C9000882351F480E460E00E941F1E80E480933A
:103CA00034031092350328C080913403803451F4DA
:103CB00084E160E00E941F1E84E18093340310922F
:103CC00035031AC080913403843151F484E560E0F7
:103CD0000E941F1E84E580933403109235030CC0AC
:103CE00080913403843541F480E060E00E941F1E1F
:103CF0001092340310923503809135038F5F8093C7
:103D0000350343C0809135038823D4F58091340373
:103D1000882359F480E463E10E941F1E80E48093AD
:103D2000340383E1809335032BC0809134038034C6
:103D300059F484E163E10E941F1E84E180933403FF
:103D400083E1809335031CC080913403843159F49E
:103D500084E563E10E941F1E84E58093340383E1C0
:103D6000809335030DC080913403843549F480E09D
:103D700063E10E941F1E1092340383E18093350398
:103D80008091350381508093350389810E94AA1A5E
:103D90000F90CF91DF910895DF93CF9300D00F92D2
:103DA000CDB7DEB79B838A8319820EC08981282F05
:103DB00030E08A819B81FC01E20FF31F80810E9429
:103DC000371E89818F5F89838981282F30E08A811E
:103DD0009B81FC01E20FF31F8081882339F70F904C
:103DE0000F900F90CF91DF9108950F931F93DF9362
:103DF000CF93CDB7DEB761970FB6F894DEBF0FBE95
:103E0000CDBF6E877F87888B998B19828E859F8522
:103E1000A889B9890097A105B10519F480E30E942A
:103E2000371E8E859F85A889B989BB230CF041C0B8
:103E30008DE20E94371E8E859F85A889B989B0952D
:103E4000A095909581959F4FAF4FBF4F8E879F87CD
:103E5000A88BB98B2EC08981082F10E08E859F8595
:103E6000A889B9892AE030E040E050E0BC01CD01EA
:103E70000E94083DDC01CB01282F205DCE01029677
:103E8000FC01E00FF11F20838E859F85A889B989E9
:103E90002AE030E040E050E0BC01CD010E94083D46
:103EA000DA01C9018E879F87A88BB98B89818F5FC3
:103EB00089838E859F85A889B9890097A105B10559
:103EC00051F611C08981882F90E09C01215030402B
:103ED000CE010296FC01E20FF31F80810E94371E83
:103EE0008981815089838981882361F761960FB622
:103EF000F894DEBF0FBECDBFCF91DF911F910F9120
:103F00000895DF93CF93CDB7DEB727970FB6F89418
:103F1000DEBF0FBECDBF6B837C838D839E831A82F1
:103F20008FE189833DC08A818823B9F48981282F54
:103F3000332727FD30958B819C81AD81BE81022E78
:103F400004C0B695A795979587950A94D2F7817086
:103F50009070882311F081E08A838A818130E9F4AE
:103F60008981282F332727FD30958B819C81AD8156
:103F7000BE81022E04C0B695A795979587950A94A1
:103F8000D2F781709070882319F081E38F8302C08B
:103F900080E38F838F810E94371E898181508983BE
:103FA000898188230CF0BFCF27960FB6F894DEBF27
:103FB0000FBECDBFCF91DF910895DF93CF9300D097
:103FC00000D000D0CDB7DEB76B837C838D839E831A
:103FD0001A8280E30E94371E88E70E94371E8CE118
:103FE000898390C08981282F332727FD30958B81C5
:103FF0009C81AD81BE81022E04C0B695A795979590
:1040000087950A94D2F70097A105B10511F081E0D8
:104010008A838A81882309F43DC08981282F332728
:1040200027FD30958B819C81AD81BE81022E04C01D
:10403000B695A795979587950A94D2F78A309105FA
:10404000A105B105A0F08981282F332727FD3095E0
:104050008B819C81AD81BE8104C0B695A795979553
:1040600087952A95D2F7895C0E94371E13C08981F3
:10407000282F332727FD30958B819C81AD81BE8110
:1040800004C0B695A795979587952A95D2F7805D38
:104090000E94371E8981282F332727FD309580E223
:1040A00090E0AC01421B530B9A018B819C81AD8146
:1040B000BE8104C0880F991FAA1FBB1F2A95D2F783
:1040C0008B839C83AD83BE838981282F332727FD73
:1040D000309580E290E0AC01421B530B9A018B813A
:1040E0009C81AD81BE81022E04C0B695A79597959F
:1040F00087950A94D2F78B839C83AD83BE83898195
:1041000084508983898188230CF06CCF26960FB662
:10411000F894DEBF0FBECDBFCF91DF910895DF933E
:10412000CF9300D000D00F92CDB7DEB78B837D83C5
:104130006C8380913603882301F58B81882F90E072
:104140000896880F991F880F991F880F991F0E9442
:1041500071181A820EC08A81282F30E08C819D81CF
:10416000FC01E20FF31F80810E94AA1A8A818F5FEF
:104170008A838A81883078F325C08B81882F90E0EC
:104180000996880F991F880F991F880F991F8150D2
:104190000E947118198213C08981282F30E087E0AE
:1041A00090E0821B930B9C018C819D81FC01E20FAE
:1041B000F31F80810E94AA1A89818F5F8983898178
:1041C000883050F30F900F900F900F900F90CF9179
:1041D000DF9108958F92AF92CF92EF920F93DF937A
:1041E000CF93CDB7DEB72A970FB6F894DEBF0FBED8
:1041F000CDBF9A8389836B834C832D830E83EF829B
:10420000C886A9868A86E981FA818B818083898123
:104210009A81FC0131968C81808389819A81FC018D
:1042200032968D81808389819A81FC0133968E81BB
:10423000808389819A81FC0134968F818083898172
:104240009A81FC0135968885808389819A81FC0159
:1042500036968985808389819A81FC0137968A8583
:1042600080832A960FB6F894DEBF0FBECDBFCF91E4
:10427000DF910F91EF90CF90AF908F900895DF93E3
:10428000CF930F92CDB7DEB719820DC08981882FE9
:1042900090E0FC01E657FD4F808161E00E94101321
:1042A00089818F5F89838981843080F30F90CF91DA
:1042B000DF910895DF93CF93CDB7DEB761970FB647
:1042C000F894DEBF0FBECDBF84E5898B188ABBC0D2
:1042D0008889882F90E0FC01E657FD4F808160E0DF
:1042E0000E9410131F869EC08F85882F90E0FC01CE
:1042F000E257FD4F80810E942714882309F08FC068
:104300008889482F50E08F85282F30E0CA01880F18
:10431000991F880F991F820F931FFC01E658FD4FCC
:104320008081898B80E090E0A0E2B1E48B879C875C
:10433000AD87BE876B857C858D859E8520E030E0CE
:104340004AEF54E40E941F02DC01CB018F8398875F
:10435000A987BA876F81788589859A8520E030E0C2
:1043600040E85FE30E94A90388232CF481E090E0F9
:104370009E838D833FC06F81788589859A8520E0F3
:104380003FEF4FE757E40E94490318164CF56B8541
:104390007C858D859E8520E030E040E251E40E94DE
:1043A0001F02DC01CB01BC01CD010E944900DC01F0
:1043B000CB019E838D830FC088EC90E09C838B8320
:1043C0008B819C810197F1F79C838B838D819E81EA
:1043D00001979E838D838D819E81009769F714C01C
:1043E0006F81788589859A850E944900DC01CB011F
:1043F0009E838D838D819E819A83898389819A8111
:104400000197F1F79A8389838F85882F90E0FC01CB
:10441000E257FD4F80810E9427148823A9F38F85DE
:104420008F5F8F878F85843008F45ECF8889882FCF
:1044300090E0FC01E657FD4F808161E00E9410137F
:1044400088898F5F888B8889843008F441CF898977
:1044500061960FB6F894DEBF0FBECDBFCF91DF914E
:104460000895DF93CF93CDB7DEB788EC0E94FC0CA4
:10447000CF91DF910895DF93CF93CDB7DEB76297E9
:104480000FB6F894DEBF0FBECDBF998B888B6A8BB9
:1044900088899989892F992780658F870E942E0D99
:1044A0008F850E94A00D88890E94140E8A890E941F
:1044B000140E0E94840D80E090E0A0EAB0E48B87A7
:1044C0009C87AD87BE876B857C858D859E8520E02A
:1044D00030E04AEF54E40E941F02DC01CB018F83DD
:1044E0009887A987BA876F81788589859A8520E022
:1044F00030E040E85FE30E94A90388232CF481E0C8
:1045000090E09E838D833FC06F81788589859A85F1
:1045100020E03FEF4FE757E40E94490318164CF59F
:104520006B857C858D859E8520E030E040E251E4FE
:104530000E941F02DC01CB01BC01CD010E94490099
:10454000DC01CB019E838D830FC088EC90E09C83BF
:104550008B838B819C810197F1F79C838B838D8169
:104560009E8101979E838D838D819E81009769F73F
:1045700014C06F81788589859A850E944900DC0185
:10458000CB019E838D838D819E819A8389838981CE
:104590009A810197F1F79A83898362960FB6F8940E
:1045A000DEBF0FBECDBFCF91DF910895DF93CF93D4
:1045B000CDB7DEB763970FB6F894DEBF0FBECDBFA1
:1045C000998B888B7B8B6A8B88899989892F99270E
:1045D00080658F870E942E0D8F850E94A00D88898F
:1045E0000E94140E0E94590D8F850E94DA0D0E94C0
:1045F0003F0EEA89FB8980830E94840D80E090E071
:10460000A0EAB0E48B879C87AD87BE876B857C85ED
:104610008D859E8520E030E04AEF54E40E941F0221
:10462000DC01CB018F839887A987BA876F81788552
:1046300089859A8520E030E040E85FE30E94A90385
:1046400088232CF481E090E09E838D833FC06F81AE
:10465000788589859A8520E03FEF4FE757E40E94EF
:10466000490318164CF56B857C858D859E8520E069
:1046700030E040E251E40E941F02DC01CB01BC01AA
:10468000CD010E944900DC01CB019E838D830FC0C8
:1046900088EC90E09C838B838B819C810197F1F760
:1046A0009C838B838D819E8101979E838D838D81D9
:1046B0009E81009769F714C06F81788589859A85F6
:1046C0000E944900DC01CB019E838D838D819E81F8
:1046D0009A83898389819A810197F1F79A838983E3
:1046E00063960FB6F894DEBF0FBECDBFCF91DF91BA
:1046F0000895DF93CF93CDB7DEB76A970FB6F894DE
:10470000DEBF0FBECDBF9D8B8C8B7F8B6E8B488F9A
:104710001B8A888D682F62956F706A8F888D882FAD
:1047200090E08F709070198E009711F071E0798F82
:104730008A8D998D890F8A8B8A89898B188AB4C052
:104740008C899D89892F992780658F870E942E0DDE
:104750008F850E94A00D8C890E94140E0EC088893E
:10476000282F30E08E899F89FC01E20FF31F8081A2
:104770000E94140E88898F5F888B8889482F50E0AB
:104780008989282F30E08A89882F90E0B901681B39
:10479000790BCB01019682959295907F9827807F27
:1047A00098274817590724F49889888D9817B8F2E4
:1047B0000E94840D80E090E0A8ECB2E48B879C8797
:1047C000AD87BE876B857C858D859E8520E030E03A
:1047D0004AEF54E40E941F02DC01CB018F839887CB
:1047E000A987BA876F81788589859A8520E030E02E
:1047F00040E85FE30E94A90388232CF481E090E065
:104800009E838D833FC06F81788589859A8520E05E
:104810003FEF4FE757E40E94490318164CF56B85AC
:104820007C858D859E8520E030E040E251E40E9449
:104830001F02DC01CB01BC01CD010E944900DC015B
:10484000CB019E838D830FC088EC90E09C838B838B
:104850008B819C810197F1F79C838B838D819E8155
:1048600001979E838D838D819E81009769F714C087
:104870006F81788589859A850E944900DC01CB018A
:104880009E838D838D819E819A83898389819A817C
:104890000197F1F79A8389838C899D8940969D8B36
:1048A0008C8B8A8981508A8B8A89882309F048CF2A
:1048B0006A960FB6F894DEBF0FBECDBFCF91DF91E1
:1048C00008950F931F93DF93CF93CDB7DEB765970E
:1048D0000FB6F894DEBF0FBECDBF9A8B898B7C8B51
:1048E0006B8B4D8B89899A89892F99278065888B55
:1048F0000E942E0D88890E94A00D89890E94140EA5
:104900000E94590D88890E94DA0D1F8623C08F8569
:10491000282F30E08B899C898C01020F131F0E9485
:104920003F0EF80180838F85282F30E08B899C898A
:10493000FC01E20FF31F8081882F90E0A0E0B0E03F
:10494000BC01CD010E94F51E80E20E94371E8F85BA
:104950008F5F8F879F858D899817C8F20E94840D7D
:1049600080E090E0A8ECB2E48B879C87AD87BE879F
:104970006B857C858D859E8520E030E04AEF54E490
:104980000E941F02DC01CB018F839887A987BA8719
:104990006F81788589859A8520E030E040E85FE383
:1049A0000E94A90388232CF481E090E09E838D83EC
:1049B0003FC06F81788589859A8520E03FEF4FE77A
:1049C00057E40E94490318164CF56B857C858D854C
:1049D0009E8520E030E040E251E40E941F02DC01AD
:1049E000CB01BC01CD010E944900DC01CB019E83BB
:1049F0008D830FC088EC90E09C838B838B819C819E
:104A00000197F1F79C838B838D819E8101979E8313
:104A10008D838D819E81009769F714C06F817885A1
:104A200089859A850E944900DC01CB019E838D8394
:104A30008D819E819A83898389819A810197F1F77B
:104A40009A83898365960FB6F894DEBF0FBECDBFFB
:104A5000CF91DF911F910F910895DF93CF9300D0F5
:104A600000D000D0CDB7DEB79C838B837E836D836F
:104A70001A82198218C02B813C8189819A81A901EF
:104A8000480F591F2D813E8189819A81F901E80FD4
:104A9000F91F2081CA01622F0E943B2289819A81DD
:104AA00001969A83898389819A818E31910518F3C1
:104AB00026960FB6F894DEBF0FBECDBFCF91DF9123
:104AC0000895DF93CF93CDB7DEB727970FB6F8944D
:104AD000DEBF0FBECDBF9D838C837F836E831B8221
:104AE0001A8219821AC02C813D8189819A81820F94
:104AF000931F9E012D5F3F4FB9010E94D6222E8148
:104B00003F8189819A81F901E80FF91F8B818083A8
:104B100089819A8101969A83898389819A818E31CC
:104B2000910508F327960FB6F894DEBF0FBECDBFF0
:104B3000CF91DF910895DF93CF93CDB7DEB780E0BB
:104B40000E94AE2581E00E94AE2582E00E94AE2543
:104B500083E00E94AE25CF91DF910895DF93CF933C
:104B60000F92CDB7DEB789838981882F90E0880FB7
:104B7000991F89838981882F90E0FC01E852FD4FBD
:104B8000808160E00E9410138981882F90E0019657
:104B9000FC01E852FD4F808160E00E9410130F90ED
:104BA000CF91DF910895DF93CF930F92CDB7DEB70A
:104BB00089838981882F90E0880F991F8983898153
:104BC000882F90E0FC01E852FD4F808161E00E9457
:104BD00010138981882F90E00196FC01E852FD4F67
:104BE000808160E00E9410130F90CF91DF910895B3
:104BF000DF93CF930F92CDB7DEB789838981882F5A
:104C000090E0880F991F89838981882F90E0FC01AB
:104C1000E852FD4F808160E00E9410138981882F47
:104C200090E00196FC01E852FD4F808161E00E9416
:104C300010130F90CF91DF910895DF93CF930F92D0
:104C4000CDB7DEB789830E943B0B0E94BB0A8981E6
:104C50000E94FA0A0E942D0B0E94D70A0F90CF9152
:104C6000DF910895DF93CF93CDB7DEB70E94EA1DA1
:104C700080E060E00E941F1E80E690E00E94CC1E53
:104C800080E460E00E941F1E89E690E00E94CC1E36
:104C9000CF91DF910895DF93CF93CDB7DEB72E97F5
:104CA0000FB6F894DEBF0FBECDBF0E94EA1D83E7AA
:104CB00090E00E94CC1E80E090E0AAEFB3E48B87E6
:104CC0009C87AD87BE876B857C858D859E8520E022
:104CD00030E04AEF54E40E941F02DC01CB018F83D5
:104CE0009887A987BA876F81788589859A8520E01A
:104CF00030E040E85FE30E94A90388232CF481E0C0
:104D000090E09E838D833FC06F81788589859A85E9
:104D100020E03FEF4FE757E40E94490318164CF597
:104D20006B857C858D859E8520E030E040E251E4F6
:104D30000E941F02DC01CB01BC01CD010E94490091
:104D4000DC01CB019E838D830FC088EC90E09C83B7
:104D50008B838B819C810197F1F79C838B838D8161
:104D60009E8101979E838D838D819E81009769F737
:104D700014C06F81788589859A850E944900DC017D
:104D8000CB019E838D838D819E819A8389838981C6
:104D90009A810197F1F79A8389830E94EA1D80E046
:104DA00060E00E941F1E86E890E00E94CC1E80E416
:104DB00060E00E941F1E84E990E00E94CC1E84E106
:104DC00060E00E941F1E83EA90E00E94CC1E84E5F2
:104DD00060E00E941F1E81EB90E00E94CC1E2E9688
:104DE0000FB6F894DEBF0FBECDBFCF91DF9108950F
:104DF000DF93CF93CDB7DEB70E94EA1D80E060E07D
:104E00000E941F1E82EC90E00E94CC1E80E460E0B5
:104E10000E941F1E8EEC90E00E94CC1E80E468E091
:104E20000E941F1E86ED90E00E94CC1E84E160E08F
:104E30000E941F1E8EED90E00E94CC1E84E168E06F
:104E40000E941F1E86EE90E00E94CC1E84E560E06A
:104E50000E941F1E8EEE90E00E94CC1E84E568E04A
:104E60000E941F1E86EF90E00E94CC1ECF91DF9122
:104E70000895DF93CF93CDB7DEB70E94EA1D80E09F
:104E800060E00E941F1E81E091E00E94CC1E80E441
:104E900060E00E941F1E80E191E00E94CC1E84E130
:104EA00060E00E941F1E85E191E00E94CC1ECF9120
:104EB000DF910895DF93CF9300D000D000D0CDB71D
:104EC000DEB79C838B837E836D830E94F82681E00E
:104ED0008A832AC00E945A2189838981843521F1DD
:104EE0008981863351F483E00E947615982F907E55
:104EF00083E0692F0E9435151AC089818053EB81A8
:104F0000FC8180830E9439270CC00E945A2189832A
:104F10008981843531F089818053ED81FE818083E0
:104F20001A828A81882389F78A81882399F62696AE
:104F30000FB6F894DEBF0FBECDBFCF91DF910895BD
:104F4000DF93CF93CDB7DEB70E94EA1D80E060E02B
:104F50000E941F1E81E091E00E94CC1E80E460E070
:104F60000E941F1E8BE191E00E94CC1E84E160E054
:104F70000E941F1E82E291E00E94CC1ECF91DF9121
:104F80000895DF93CF9300D000D0CDB7DEB79C83D8
:104F90008B830E94A02781E08A830CC00E945A2143
:104FA00089838981843531F089818053EB81FC814B
:104FB00080831A828A81882389F70F900F900F903F
:104FC0000F90CF91DF910895DF93CF93CDB7DEB7E8
:104FD0000E94EA1D80E060E00E941F1E8AE291E0CC
:104FE0000E94CC1E80E460E00E941F1ECF91DF91E2
:104FF0000895DF93CF93CDB7DEB763970FB6F894DC
:10500000DEBF0FBECDBF9B8B8A8B0E94E427198A1F
:10501000188A1EC00E945A218F878F858435C1F05F
:105020008F850E94371E8889882F90E09C01220F6F
:10503000331FC901880F991F880F991F820F931F73
:10504000982F8F85890F8053888B89898F5F898BF3
:1050500089898230F8F2EA89FB898889808380E037
:1050600090E0A8E4B2E48B879C87AD87BE876B8510
:105070007C858D859E8520E030E04AEF54E40E94D7
:105080001F02DC01CB018F839887A987BA876F81C4
:10509000788589859A8520E030E040E85FE30E94CA
:1050A000A90388232CF481E090E09E838D833FC088
:1050B0006F81788589859A8520E03FEF4FE757E437
:1050C0000E94490318164CF56B857C858D859E855D
:1050D00020E030E040E251E40E941F02DC01CB01FD
:1050E000BC01CD010E944900DC01CB019E838D8370
:1050F0000FC088EC90E09C838B838B819C8101970F
:10510000F1F79C838B838D819E8101979E838D8394
:105110008D819E81009769F714C06F81788589859C
:105120009A850E944900DC01CB019E838D838D818D
:105130009E819A83898389819A810197F1F79A8365
:10514000898363960FB6F894DEBF0FBECDBFCF91B3
:10515000DF910895DF93CF9300D0CDB7DEB7898379
:105160006A838A81813029F4898161E00E94101369
:1051700007C08A81823021F4898160E00E94101387
:105180000F900F90CF91DF910895DF93CF930F92FF
:10519000CDB7DEB789838981823021F48DE20E9408
:1051A000371806C08981813019F48AE50E943718C2
:1051B0000F90CF91DF910895DF93CF930F92CDB7EA
:1051C000DEB719820E943D17898389818D3120F0D5
:1051D00080E00E94D32506C08981853118F480E0E3
:1051E0000E94AE2589810F90CF91DF910895DF93C2
:1051F000CF930F92CDB7DEB789838981843658F477
:105200008981882341F089810E943B080E946E08B1
:105210000E94180809C08981882331F40E947C0803
:105220008FE160E00E9410130F90CF91DF910895FD
:10523000DF93CF93CDB7DEB70E94DD120E94E31C4F
:105240000E94820E81E066E00E94B81582E060E074
:105250000E949E0E0E943F210E949B250E942E18B4
:105260000E94440C0E94FC070E94312280E090E0E2
:105270006BE70E943B2283E080934B030E9432261F
:10528000CF91DF9108950F931F93DF93CF93CDB705
:10529000DEB7CF57D0400FB6F894DEBF0FBECDBFFC
:1052A00080914B03833009F005C4FE01E758FF4F9E
:1052B0001082FE01E858FF4F108280E068E00E94F3
:1052C0001F1E3BC080914B03813009F444C60E94ED
:1052D0005A21FE01E958FF4F8083FE01E958FF4F34
:1052E0008081843551F1FE01E958FF4F80810E9491
:1052F000371EFE01E758FF4F8081882F90E09C0108
:10530000220F331FC901880F991F880F991F820F21
:10531000931F982FFE01E958FF4F8081890FFE01EE
:10532000E758FF4F80538083DE01A858BF4FFE012E
:10533000E858FF4F80818F5F8C93FE01E858FF4F44
:105340008081833008F4BECFFE01E758FF4F808193
:10535000882F90E0880F991F9E0126583F4FB90172
:105360000E94D622FE01E658FF4F80818F3F09F050
:10537000BEC00E94EA1D8FE391E00E94CC1EFE0198
:10538000E359FF4F80E090E0AAEFB3E4808391837C
:10539000A283B3838E0107591F4FFE01E359FF4FCC
:1053A000608171818281938120E030E04AEF54E492
:1053B0000E941F02DC01CB01F80180839183A2834C
:1053C000B383FE01E759FF4F608171818281938130
:1053D00020E030E040E85FE30E94A903882344F422
:1053E000FE01E959FF4F81E090E09183808364C022
:1053F000FE01E759FF4F608171818281938120E036
:105400003FEF4FE757E40E94490318160CF043C0E2
:10541000FE01E359FF4F608171818281938120E019
:1054200030E040E251E40E941F02DC01CB018E011A
:1054300009591F4FBC01CD010E944900DC01CB017D
:10544000F801918380831FC0FE01EB59FF4F88EC68
:1054500090E091838083FE01EB59FF4F8081918121
:105460000197F1F7FE01EB59FF4F91838083DE0135
:10547000A959BF4FFE01E959FF4F808191810197E2
:1054800011969C938E93FE01E959FF4F8081918183
:105490000097D1F627C08E0109591F4FFE01E75929
:1054A000FF4F60817181828193810E944900DC01FC
:1054B000CB01F80191838083DE01AD59BF4FFE011E
:1054C000E959FF4F808191818D939C93FE01ED59A5
:1054D000FF4F808191810197F1F7FE01ED59FF4F58
:1054E000918380830E94EA1D0E94322634C5FE010A
:1054F000EB58FF4F11821082FE01EC58FF4F1082D3
:1055000080E469E00E941F1E3AC080914B03813005
:1055100009F421C50E945A21FE01ED58FF4F8083F6
:10552000FE01ED58FF4F8081843549F18AE20E94E7
:10553000371EFE01EB58FF4F808191819C01220FA5
:10554000331FC901880F991F880F991F280F391F12
:10555000FE01ED58FF4F8081882F90E0820F931F4E
:10556000FE01EB58FF4FC09791838083DE01AC585A
:10557000BF4FFE01EC58FF4F80818F5F8C93FE017F
:10558000EC58FF4F8081833008F4BFCFFE01E15A11
:10559000FF4F80E090E0A8E4B2E480839183A2838F
:1055A000B3838E01055A1F4FFE01E15AFF4F608100
:1055B00071818281938120E030E04AEF54E40E94BF
:1055C0001F02DC01CB01F80180839183A283B383A6
:1055D000FE01E55AFF4F608171818281938120E055
:1055E00030E040E85FE30E94A903882344F4FE0111
:1055F000E75AFF4F81E090E09183808364C0FE0111
:10560000E55AFF4F608171818281938120E03FEFF5
:105610004FE757E40E94490318160CF043C0FE01FF
:10562000E15AFF4F608171818281938120E030E0F7
:1056300040E251E40E941F02DC01CB018E01075AB7
:105640001F4FBC01CD010E944900DC01CB01F801D4
:10565000918380831FC0FE01E95AFF4F88EC90E0E0
:1056600091838083FE01E95AFF4F808191810197E8
:10567000F1F7FE01E95AFF4F91838083DE01A75ABB
:10568000BF4FFE01E75AFF4F80819181019711962C
:105690009C938E93FE01E75AFF4F80819181009782
:1056A000D1F628C08E01075A1F4FFE01E55AFF4F61
:1056B00060817181828193810E944900DC01CB016C
:1056C000F80191838083DE01AB5ABF4FFE01E75A98
:1056D000FF4F8081918111969C938E93FE01EB5A2E
:1056E000FF4F808191810197F1F7FE01EB5AFF4F47
:1056F00091838083FE01E658FF4F8081282F30E0A0
:10570000FE01EB58FF4F808191812817390709F47A
:10571000C9C1809137038F5F809337030E94EA1DD0
:105720008AE491E00E94CC1EFE01EF5AFF4F80E018
:1057300090E0AAEFB3E480839183A283B3838E01C8
:10574000035B1F4FFE01EF5AFF4F60817181828121
:10575000938120E030E04AEF54E40E941F02DC0114
:10576000CB01F80180839183A283B383FE01E35BC5
:10577000FF4F608171818281938120E030E040E8B9
:105780005FE30E94A903882344F4FE01E55BFF4F19
:1057900081E090E09183808364C0FE01E35BFF4F72
:1057A000608171818281938120E03FEF4FE757E470
:1057B0000E94490318160CF043C0FE01EF5AFF4F38
:1057C000608171818281938120E030E040E251E488
:1057D0000E941F02DC01CB018E01055B1F4FBC0143
:1057E000CD010E944900DC01CB01F8019183808347
:1057F0001FC0FE01E75BFF4F88EC90E09183808340
:10580000FE01E75BFF4F808191810197F1F7FE0177
:10581000E75BFF4F91838083DE01A55BBF4FFE01F5
:10582000E55BFF4F80819181019711969C938E9348
:10583000FE01E55BFF4F808191810097D1F628C082
:105840008E01055B1F4FFE01E35BFF4F608171819D
:10585000828193810E944900DC01CB01F801918390
:105860008083DE01A95BBF4FFE01E55BFF4F8081B6
:10587000918111969C938E93FE01E95BFF4F80818D
:1058800091810197F1F7FE01E95BFF4F91838083DE
:1058900080913703833009F000C187E061E00E9406
:1058A0001013FE01ED5BFF4F80E090E0AAEFB3E440
:1058B00080839183A283B3838E01015C1F4FFE011D
:1058C000ED5BFF4F608171818281938120E030E048
:1058D0004AEF54E40E941F02DC01CB01F8018083EF
:1058E0009183A283B383FE01FF96608171818281DF
:1058F000938120E030E040E85FE30E94A903882321
:105900002CF481E090E09EAF8DAF46C0FE01FF9683
:10591000608171818281938120E03FEF4FE757E4FE
:105920000E944903181664F5FE01ED5BFF4F60818C
:1059300071818281938120E030E040E251E40E9455
:105940001F02DC01CB01BC01CD010E944900DC013A
:10595000CB019EAF8DAF0FC088EC90E09CAF8BAFBA
:105960008BAD9CAD0197F1F79CAF8BAF8DAD9EAD2C
:1059700001979EAF8DAF8DAD9EAD009769F716C0B4
:10598000FE01FF9660817181828193810E944900AE
:10599000DC01CB019EAF8DAF8DAD9EAD9AAF89AFCF
:1059A00089AD9AAD0197F1F79AAF89AF87E060E0D2
:1059B0000E94101380E090E0AAEFB3E48DAB9EABA1
:1059C000AFABB8AF6DA97EA98FA998AD20E030E04C
:1059D0004AEF54E40E941F02DC01CB0189AB9AAB71
:1059E000ABABBCAB69A97AA98BA99CA920E030E03C
:1059F00040E85FE30E94A90388232CF481E090E053
:105A000098AB8FA73FC069A97AA98BA99CA920E070
:105A10003FEF4FE757E40E94490318164CF56DA974
:105A20007EA98FA998AD20E030E040E251E40E94C9
:105A30001F02DC01CB01BC01CD010E944900DC0149
:105A4000CB0198AB8FA70FC088EC90E09EA78DA7E5
:105A50008DA59EA50197F1F79EA78DA78FA598A963
:105A6000019798AB8FA78FA598A9009769F715CFD5
:105A700069A97AA98BA99CA90E944900DC01CB01E4
:105A800098AB8FA78FA598A99CA78BA78BA59CA542
:105A90000197F1F79CA78BA700CF0E94EA1D0E94F7
:105AA000322659C21092370382E080934B030E9442
:105AB0004B2651C280914B03823009F00FC10E94E6
:105AC0005A21FE01EF58FF4F8083FE01EF58FF4F30
:105AD0008081843509F43FC20E94DC28FE01EF5822
