:100000000C942A000C9447000C9447000C94470071
:100010000C9447000C9447000C9447000C94470044
:100020000C9447000C9447000C9447000C94470034
:100030000C94BC060C9447000C9447000C944700A9
:100040000C9447000C9447000C9447000C94470014
:100050000C94470011241FBECFE5D4E0DEBFCDBF16
:1000600011E0A0E6B0E0E2E3F2E302C005900D92F9
:10007000AC35B107D9F711E0ACE5B1E001C01D9294
:10008000A736B107E1F70E9460150C9417190C947C
:100090000000EF92FF920F931F937B018C0120E0F1
:1000A00030E040E05FE40E94490388238CF0C801FF
:1000B000B70120E030E040E05FE40E94C1010E940F
:1000C000A9039B01AC01205030404040504806C07D
:1000D000C801B7010E94A9039B01AC01B901CA0183
:1000E0001F910F91FF90EF900895A0E0B0E0EBE733
:1000F000F0E00C94E018DC012B01FA019C919230A5
:1001000008F439C1EB018881823008F433C194309E
:1001100069F4843009F02FC111969C91119789815F
:10012000981709F428C1A4E1B1E025C1843009F48D
:1001300021C18230A9F4923009F01DC19A01AD01AC
:1001400088E0EA010990AE01E90109929E0181501F
:10015000C1F7E201898111969C918923818308C1AD
:10016000923009F407C112962D903C901397EB0141
:100170008A819B811496AD90BD90CD90DC901797AD
:10018000EC80FD800E811F819101281B390BB90184
:1001900037FF04C066277727621B730B6032710537
:1001A0000CF061C0121613066CF537014801062EDB
:1001B00004C096948794779467940A94D2F721E0C8
:1001C00030E040E050E004C0220F331F441F551FB1
:1001D0006A95D2F721503040404050402E213F21B7
:1001E00040235123211531054105510521F021E01E
:1001F00030E040E050E079018A01E628F72808293C
:1002000019293CC0232BD1F1260E371E350146019A
:10021000062E04C096948794779467940A94D2F734
:1002200021E030E040E050E004C0220F331F441FC3
:10023000551F6A95D2F721503040404050402A2146
:100240003B214C215D21211531054105510521F04E
:1002500021E030E040E050E059016A01A628B728CB
:10026000C828D9280BC0821593052CF01C01AA249C
:10027000BB24650103C0EE24FF24870111969C91E5
:10028000D20111968C91981709F445C0992339F041
:10029000A80197012A193B094C095D0906C0A6016E
:1002A00095012E193F09400B510B57FD08C01182D3
:1002B0003382228224833583468357831DC081E0A5
:1002C00081833382228288279927DC01821B930B4A
:1002D000A40BB50B84839583A683B7830DC0220F2F
:1002E000331F441F551F24833583468357838281E0
:1002F000938101979383828324813581468157813D
:10030000DA01C9010197A109B1098F5F9F4FAF4F72
:10031000BF4328F30BC0918333822282EA0CFB1C7B
:100320000C1D1D1DE482F5820683178383E0808304
:10033000248135814681578157FF1AC0C901AA27F8
:1003400097FDA095BA2F81709070A070B0705695EF
:10035000479537952795822B932BA42BB52B848318
:100360009583A683B7838281938101969383828349
:10037000DF0101C0D201CD01CDB7DEB7E2E10C94BF
:10038000FC18A0E2B0E0E7ECF1E00C94EC18698313
:100390007A838B839C832D833E834F835887E9E048
:1003A000EE2EF12CEC0EFD1ECE010196B7010E943F
:1003B000D2048E010F5E1F4FCE010596B8010E9438
:1003C000D2048A8991E089278A8BC701B801AE01DE
:1003D000475E5F4F0E9475000E94FD03A096E6E015
:1003E0000C940819A0E2B0E0E8EFF1E00C94EC18EE
:1003F00069837A838B839C832D833E834F835887C5
:10040000F9E0EF2EF12CEC0EFD1ECE010196B701A6
:100410000E94D2048E010F5E1F4FCE010596B801D7
:100420000E94D204C701B801AE01475E5F4F0E942F
:1004300075000E94FD03A096E6E00C940819A0E266
:10044000B0E0E5E2F2E00C94E01869837A838B83F4
:100450009C832D833E834F835887CE010196BE0136
:10046000675F7F4F0E94D204CE010596BE016F5E8A
:100470007F4F0E94D2049985923088F0898982301A
:10048000C8F0943019F4823051F404C0843029F457
:10049000923081F484E191E0C6C0923049F420E0CA
:1004A0009A858A89981321E02A87CE010996BBC0D4
:1004B000823049F420E09A858A89981321E02A8BBA
:1004C000CE014196B0C02D843E844F8458886D88FB
:1004D0007E888F88988CEE24FF248701AA24BB2471
:1004E000650140E050E060E070E0E0E0F0E0C10174
:1004F00081709070892BE9F0E60CF71C081D191D1E
:100500009A01AB012A0D3B1D4C1D5D1D80E090E062
:10051000A0E0B0E0E614F7040805190520F481E036
:1005200090E0A0E0B0E0BA01A901480F591F6A1F8E
:100530007B1FAA0CBB1CCC1CDD1C97FE08C081E0F5
:1005400090E0A0E0B0E0A82AB92ACA2ADB2A3196B6
:10055000E032F10549F0660C771C881C991C569412
:10056000479437942794C3CFFA85EA892B893C892D
:100570008B859C85280F391F2E5F3F4F17C0CA01FE
:1005800081709070892B61F016950795F794E79428
:1005900080E090E0A0E0B0E8E82AF92A0A2B1B2BC3
:1005A00076956795579547952F5F3F4F77FDE7CF36
:1005B0000CC0440F551F661F771F17FD4160EE0CDE
:1005C000FF1C001F111F21503040403090E05907A0
:1005D00090E0690790E4790760F32B8F3C8FDB0193
:1005E000CA018F779070A070B07080349105A1051A
:1005F000B10561F447FD0AC0E114F10401051105DC
:1006000029F0405C5F4F6F4F7F4F40781A8EFE1786
:1006100011F081E08A8F4D8F5E8F6F8F78A383E01A
:10062000898FCE0149960E94FD03A096E2E10C94C9
:10063000FC18A8E1B0E0EFE1F3E00C94EC1869835A
:100640007A838B839C832D833E834F83588789E0F5
:10065000E82EF12CEC0EFD1ECE010196B7010E9492
:10066000D2048E010F5E1F4FCE010596B8010E9485
:10067000D2048985823040F08989823028F0C70110
:10068000B8010E944A0501C08FEF6896E6E00C941D
:100690000819A8E1B0E0EFE4F3E00C94EC186983EA
:1006A0007A838B839C832D833E834F83588789E095
:1006B000E82EF12CEC0EFD1ECE010196B7010E9432
:1006C000D2048E010F5E1F4FCE010596B8010E9425
:1006D000D2048985823040F08989823028F0C701B0
:1006E000B8010E944A0501C08FEF6896E6E00C94BD
:1006F0000819A8E1B0E0EFE7F3E00C94EC18698387
:100700007A838B839C832D833E834F83588789E034
:10071000E82EF12CEC0EFD1ECE010196B7010E94D1
:10072000D2048E010F5E1F4FCE010596B8010E94C4
:10073000D2048985823040F08989823028F0C7014F
:10074000B8010E944A0501C081E06896E6E00C9479
:100750000819ACE0B0E0EFEAF3E00C94F01869831C
:100760007A838B839C83CE010196BE016B5F7F4FA2
:100770000E94D2048D81823061F1823050F1843048
:1007800021F48E81882351F12EC02F81388537FDC9
:1007900020C06E812F3131051CF06623F9F023C093
:1007A0008EE190E0821B930B29853A854B855C8511
:1007B00004C056954795379527958A95D2F76623B5
:1007C000B1F050954095309521953F4F4F4F5F4F79
:1007D0000EC020E030E040E050E009C02FEF3FEFD6
:1007E0004FEF5FE704C020E030E040E050E8B9019F
:1007F000CA012C96E2E00C940C19DF92EF92FF9262
:100800000F931F93FC01E480F58006811781D1804E
:100810008081823048F480E090E0A0E1B0E0E82AF6
:10082000F92A0A2B1B2BA5C0843009F49FC0823003
:1008300021F4EE24FF24870105C0E114F104010531
:10084000110519F4E0E0F0E096C0628173819FEF3A
:10085000623879070CF05BC022E83FEF261B370BAC
:100860002A3131052CF020E030E040E050E02AC091
:10087000B801A701022E04C0769567955795479554
:100880000A94D2F781E090E0A0E0B0E004C0880FC5
:10089000991FAA1FBB1F2A95D2F70197A109B10979
:1008A0008E219F21A023B1230097A105B10521F03E
:1008B00081E090E0A0E0B0E09A01AB01282B392B59
:1008C0004A2B5B2BDA01C9018F779070A070B07052
:1008D00080349105A105B10539F427FF09C0205CDA
:1008E0003F4F4F4F5F4F04C0215C3F4F4F4F5F4F13
:1008F000E0E0F0E02030A0E03A07A0E04A07A0E402
:100900005A0710F0E1E0F0E079018A0127C0603871
:10091000710564F5FB01E158FF4FD801C7018F77DE
:100920009070A070B07080349105A105B10539F4C4
:10093000E7FE0DC080E490E0A0E0B0E004C08FE3EB
:1009400090E0A0E0B0E0E80EF91E0A1F1B1F17FFA1
:1009500005C016950795F794E794319687E01695AC
:100960000795F794E7948A95D1F705C0EE24FF2404
:100970008701EFEFF0E06E2F679566276795902F60
:100980009F77D794DD24D7948E2F8695492F462BB9
:10099000582F5D29B701CA011F910F91FF90EF9069
:1009A000DF900895FC01DB01408151812281622F9B
:1009B0006F7770E0221F2227221F9381892F880FD3
:1009C000822B282F30E0991F9927991F11969C930D
:1009D000119721153105A9F54115510561057105DD
:1009E00011F482E037C082E89FEF13969C938E93B8
:1009F00012979A01AB0167E0220F331F441F551F66
:100A00006A95D1F783E08C930DC0220F331F441FEA
:100A1000551F12968D919C911397019713969C9355
:100A20008E931297203080E0380780E0480780E4FA
:100A3000580758F314962D933D934D935C93179755
:100A400008952F3F310579F4411551056105710570
:100A500019F484E08C93089564FF03C081E08C93C3
:100A600012C01C9210C02F57304013963C932E9307
:100A7000129783E08C9387E0440F551F661F771F02
:100A80008A95D1F7706414964D935D936D937C9322
:100A9000179708951F93DC01FB019C91923008F495
:100AA00047C08081823008F443C0943051F41196DD
:100AB0001C91843099F58181682F70E0611B710968
:100AC0003FC0843021F0923031F48230B9F181811D
:100AD000882389F12DC011961C9111978230F1F075
:100AE00081811817D9F412962D913C911397828128
:100AF00093818217930794F028173907BCF0149656
:100B00008D919D910D90BC91A02D248135814681C0
:100B10005781281739074A075B0718F4112341F05A
:100B20000AC082179307A407B50740F4112319F0F0
:100B300061E070E005C06FEF7FEF02C060E070E041
:100B4000CB011F910895DF93CF93CDB7DEB72897E0
:100B50000FB6F894DEBF0FBECDBF6D837E838F834B
:100B600098878D819E81AF81B885880F991FAA1FB4
:100B7000BB1F880F991FAA1FBB1F880F991FAA1F91
:100B8000BB1F880F991FAA1FBB1F9C01AD0180E0EE
:100B900092E1AAE7B0E0BC01CD010E94A318DA01FE
:100BA000C9010197A109B10989839A83AB83BC83E9
:100BB000E9E2F0E089818083E0E4F0E089819A81D4
:100BC000AB81BC81892F9A2FAB2FBB278F7080837D
:100BD000EAE2F0E088E18083E0E4F0E086E8808308
:100BE00028960FB6F894DEBF0FBECDBFCF91DF9130
:100BF0000895DF93CF930F92CDB7DEB78983EBE2F1
:100C0000F0E08081882F90E0807290700097B9F3B7
:100C1000ECE2F0E0898180830F90CF91DF9108951D
:100C2000DF93CF93CDB7DEB7EBE2F0E0808188238E
:100C3000DCF7ECE2F0E08081CF91DF910895DF9363
:100C4000CF93CDB7DEB7ADE2B0E0EDE2F0E080816A
:100C500080628C93ADE2B0E0EDE2F0E080818061F3
:100C60008C93ADE2B0E0EDE2F0E0808181608C93A6
:100C7000ADE2B0E0EDE2F0E080818D7F8C93AEE2FA
:100C8000B0E0EEE2F0E080818E7F8C93ADE2B0E0E8
:100C9000EDE2F0E0808188608C93ADE2B0E0EDE2BF
:100CA000F0E0808184608C93ADE2B0E0EDE2F0E0B2
:100CB000808180648C93CF91DF910895DF93CF93EF
:100CC000CDB7DEB7ADE2B0E0EDE2F0E08081806864
:100CD0008C93CF91DF910895DF93CF930F92CDB78F
:100CE000DEB78983EEE2F0E0808182958695869575
:100CF0008370882F90E081709070882399F7EFE2DD
:100D0000F0E089818083EEE2F0E080818823DCF7E7
:100D1000EFE2F0E080810F90CF91DF910895DF93B3
:100D2000CF930F92CDB7DEB78983EEE2F0E08081FA
:100D30008295869586958370882F90E0817090705B
:100D4000882399F7EFE2F0E0898180830F90CF91BB
:100D5000DF910895DF93CF9300D0CDB7DEB79A83AC
:100D6000898389819A8190935D0180935C010F90C2
:100D70000F90CF91DF9108951F920F920FB60F92AF
:100D800011242F933F934F935F936F937F938F9390
:100D90009F93AF93BF93EF93FF93DF93CF93CDB721
:100DA000DEB7E0915C01F0915D01AFE2B0E08C91C3
:100DB0000995CF91DF91FF91EF91BF91AF919F91F5
:100DC0008F917F916F915F914F913F912F910F90F4
:100DD0000FBE0F901F901895DF93CF93CDB7DEB75E
:100DE000AFE5B0E0EFE5F0E0808180688C93CF91D3
:100DF000DF910895DF93CF93CDB7DEB7AFE5B0E0D5
:100E0000EFE5F0E080818F778C93CF91DF910895AB
:100E1000DF93CF93CDB7DEB728970FB6F894DEBF38
:100E20000FBECDBF89836A838A81882309F0D9C028
:100E30008981869586958695282F30E038872F837F
:100E40008F8198858130910509F444C02F813885C0
:100E5000223031052CF48F819885009771F07EC285
:100E60002F8138852230310509F461C08F81988542
:100E70008330910509F488C071C2AAE3B0E0EAE3C7
:100E8000F0E08081482F8981882F90E09C012770B5
:100E9000307081E090E002C0880F991F2A95E2F738
:100EA000842B8C93ABE3B0E0EBE3F0E08081482F40
:100EB0008981882F90E09C012770307081E090E05C
:100EC000022E02C0880F991F0A94E2F780958423AE
:100ED0008C9344C2A7E3B0E0E7E3F0E08081482FC1
:100EE0008981882F90E09C012770307081E090E02C
:100EF00002C0880F991F2A95E2F7842B8C93A8E3F0
:100F0000B0E0E8E3F0E08081482F8981882F90E00D
:100F10009C012770307081E090E0022E02C0880FA3
:100F2000991F0A94E2F7809584238C9317C2A4E357
:100F3000B0E0E4E3F0E08081482F8981882F90E0E1
:100F40009C012770307081E090E002C0880F991FEB
:100F50002A95E2F7842B8C93A5E3B0E0E5E3F0E07B
:100F60008081482F8981882F90E09C012770307004
:100F700081E090E0022E02C0880F991F0A94E2F7E8
:100F8000809584238C93EAC1A1E3B0E0E1E3F0E033
:100F90008081482F8981882F90E09C0127703070D4
:100FA00081E090E002C0880F991F2A95E2F7842B18
:100FB0008C93A2E3B0E0E2E3F0E08081482F8981E6
:100FC000882F90E09C012770307081E090E0022E25
:100FD00002C0880F991F0A94E2F7809584238C93AE
:100FE000BDC18A81813009F0DDC0898186958695F1
:100FF0008695282F30E03E832D838D819E81813020
:10100000910509F445C02D813E81223031052CF433
:101010008D819E81009771F0A1C12D813E8122308A
:10102000310509F463C08D819E818330910509F4F7
:101030008BC094C1AAE3B0E0EAE3F0E08081482FDE
:101040008981882F90E09C012770307081E090E0CA
:1010500002C0880F991F2A95E2F7809584238C930C
:10106000ABE3B0E0EBE3F0E08081482F8981882F8B
:1010700090E09C012770307081E090E0022E02C069
:10108000880F991F0A94E2F7809584238C9366C198
:10109000A7E3B0E0E7E3F0E08081482F8981882F63
:1010A00090E09C012770307081E090E002C0880FD2
:1010B000991F2A95E2F7809584238C93A8E3B0E0EA
:1010C000E8E3F0E08081482F8981882F90E09C013F
:1010D0002770307081E090E0022E02C0880F991FC7
:1010E0000A94E2F7809584238C9338C1A4E3B0E09E
:1010F000E4E3F0E08081482F8981882F90E09C0113
:101100002770307081E090E002C0880F991F2A9507
:10111000E2F7809584238C93A5E3B0E0E5E3F0E06B
:101120008081482F8981882F90E09C012770307042
:1011300081E090E0022E02C0880F991F0A94E2F726
:10114000809584238C930AC1A1E3B0E0E1E3F0E051
:101150008081482F8981882F90E09C012770307012
:1011600081E090E002C0880F991F2A95E2F78095F0
:1011700084238C93A2E3B0E0E2E3F0E08081482F87
:101180008981882F90E09C012770307081E090E089
:10119000022E02C0880F991F0A94E2F780958423DB
:1011A0008C93DCC08A81823009F0D8C08981869511
:1011B00086958695282F30E03C832B838B819C81FC
:1011C0008130910509F444C02B813C8122303105E6
:1011D0002CF48B819C81009771F0C0C02B813C81E5
:1011E0002230310509F461C08B819C8183309105E7
:1011F00009F488C0B3C0AAE3B0E0EAE3F0E080817C
:10120000482F8981882F90E09C012770307081E001
:1012100090E002C0880F991F2A95E2F780958423F9
:101220008C93ABE3B0E0EBE3F0E08081482F898161
:10123000882F90E09C012770307081E090E0022EB2
:1012400002C0880F991F0A94E2F7842B8C9386C002
:10125000A7E3B0E0E7E3F0E08081482F8981882FA1
:1012600090E09C012770307081E090E002C0880F10
:10127000991F2A95E2F7809584238C93A8E3B0E028
:10128000E8E3F0E08081482F8981882F90E09C017D
:101290002770307081E090E0022E02C0880F991F05
:1012A0000A94E2F7842B8C9359C0A4E3B0E0E4E302
:1012B000F0E08081482F8981882F90E09C01277081
:1012C000307081E090E002C0880F991F2A95E2F704
:1012D000809584238C93A5E3B0E0E5E3F0E0808182
:1012E000482F8981882F90E09C012770307081E021
:1012F00090E0022E02C0880F991F0A94E2F7842B17
:101300008C932CC0A1E3B0E0E1E3F0E08081482FB2
:101310008981882F90E09C012770307081E090E0F7
:1013200002C0880F991F2A95E2F7809584238C9339
:10133000A2E3B0E0E2E3F0E08081482F8981882FCA
:1013400090E09C012770307081E090E0022E02C096
:10135000880F991F0A94E2F7842B8C9328960FB676
:10136000F894DEBF0FBECDBFCF91DF910895DF931C
:10137000CF9300D00F92CDB7DEB780E290E09B8391
:101380008A83198219C08981882F90E0880F991F5C
:10139000FC01E45EFE4F20818981882F90E0880F58
:1013A000991FFC01E35EFE4F9081822F692F0E94FE
:1013B000080789818F5F89838981282F30E08A819E
:1013C0009B8128173907FCF20F900F900F90CF9157
:1013D000DF910895DF93CF9300D000D000D0CDB738
:1013E000DEB789836A838A81813009F07FC0898171
:1013F000869586958695282F30E03E832D838D81B6
:101400009E818130910569F12D813E812230310527
:101410002CF48D819E81009769F0EAC02D813E8178
:1014200022303105A9F18D819E818330910509F427
:1014300046C0DEC0ABE3B0E0EBE3F0E08081482FD4
:101440008981882F90E09C012770307081E090E0C6
:10145000022E02C0880F991F0A94E2F7842B8C9306
:10146000C7C0A8E3B0E0E8E3F0E08081482F8981BD
:10147000882F90E09C012770307081E090E0022E70
:1014800002C0880F991F0A94E2F7842B8C93B0C096
:10149000A5E3B0E0E5E3F0E08081482F8981882F63
:1014A00090E09C012770307081E090E0022E02C035
:1014B000880F991F0A94E2F7842B8C9399C0A2E3BA
:1014C000B0E0E2E3F0E08081482F8981882F90E04E
:1014D0009C012770307081E090E0022E02C0880FDE
:1014E000991F0A94E2F7842B8C9382C08981869598
:1014F00086958695282F30E03C832B838B819C81B9
:101500008130910571F12B813C81223031052CF421
:101510008B819C81009769F06BC02B813C812230CC
:101520003105B9F18B819C818330910509F449C063
:101530005FC0ABE3B0E0EBE3F0E08081482F89814E
:10154000882F90E09C012770307081E090E0022E9F
:1015500002C0880F991F0A94E2F7809584238C9328
:1015600047C0A8E3B0E0E8E3F0E08081482F89813C
:10157000882F90E09C012770307081E090E0022E6F
:1015800002C0880F991F0A94E2F7809584238C93F8
:101590002FC0A5E3B0E0E5E3F0E08081482F89812A
:1015A000882F90E09C012770307081E090E0022E3F
:1015B00002C0880F991F0A94E2F7809584238C93C8
:1015C00017C0A2E3B0E0E2E3F0E08081482F898118
:1015D000882F90E09C012770307081E090E0022E0F
:1015E00002C0880F991F0A94E2F7809584238C9398
:1015F00026960FB6F894DEBF0FBECDBFCF91DF9118
:101600000895DF93CF9300D000D0CDB7DEB78A83A3
:1016100019828A81869586958695282F30E03C83AD
:101620002B834B815C814130510559F18B819C8129
:101630008230910534F42B813C812115310569F00C
:101640005BC04B815C814230510579F18B819C817B
:101650008330910509F43DC04FC0E9E3F0E080819B
:10166000282F30E08A81882F90E087709070A90140
:1016700002C0559547958A95E2F7CA018170898322
:101680003BC0E6E3F0E08081282F30E08A81882F9C
:1016900090E087709070A90102C0559547958A9592
:1016A000E2F7CA018170898327C0E3E3F0E080811B
:1016B000282F30E08A81882F90E087709070A901F0
:1016C00002C0559547958A95E2F7CA0181708983D2
:1016D00013C0E0E3F0E08081282F30E08A81882F7A
:1016E00090E087709070A90102C0559547958A9542
:1016F000E2F7CA018170898389810F900F900F9062
:101700000F90CF91DF910895DF93CF9300D00F9288
:10171000CDB7DEB789838981869586958695282FF2
:1017200030E03B832A838A819B818130910569F176
:101730002A813B81223031052CF48A819B810097DC
:1017400069F067C02A813B8122303105A9F18A8185
:101750009B818330910509F446C05BC0ABE3B0E0E8
:10176000EBE3F0E08081482F8981882F90E09C0195
:101770002770307081E090E0022E02C0880F991F20
:101780000A94E2F784278C9344C0A8E3B0E0E8E32E
:10179000F0E08081482F8981882F90E09C0127709C
:1017A000307081E090E0022E02C0880F991F0A94E9
:1017B000E2F784278C932DC0A5E3B0E0E5E3F0E0E9
:1017C0008081482F8981882F90E09C01277030709C
:1017D00081E090E0022E02C0880F991F0A94E2F780
:1017E00084278C9316C0A2E3B0E0E2E3F0E08081AE
:1017F000482F8981882F90E09C012770307081E00C
:1018000090E0022E02C0880F991F0A94E2F7842705
:101810008C930F900F900F90CF91DF910895DF93ED
:10182000CF9300D000D0CDB7DEB789836A8389819A
:10183000282F30E03C832B838B819C818130910564
:10184000D1F02B813C81223031052CF48B819C819D
:10185000009761F01EC02B813C812230310581F060
:101860008B819C818330910581F013C0EBE3F0E024
:101870008A8180830EC0E8E3F0E08A81808309C01A
:10188000E5E3F0E08A81808304C0E2E3F0E08A814E
:1018900080830F900F900F900F90CF91DF9108955C
:1018A000DF93CF9300D000D0CDB7DEB78A83198203
:1018B0008A81282F30E03C832B838B819C8181306F
:1018C0009105D1F02B813C81223031052CF48B81A4
:1018D0009C81009761F01EC02B813C812230310534
:1018E00081F08B819C818330910581F013C0E9E305
:1018F000F0E0808189830EC0E6E3F0E08081898397
:1019000009C0E3E3F0E08081898304C0E0E3F0E014
:101910008081898389810F900F900F900F90CF91D4
:10192000DF910895DF93CF93CDB7DEB7E9970FB678
:10193000F894DEBF0FBECDBF89AF87E060E00E94A4
:10194000EA0989AD982F991F9927991F82E0692F7D
:101950000E94EA0989AD8295869586958370982FB5
:10196000917083E0692F0E94EA0989AD829586957E
:101970008770982F917084E0692F0E94EA0989ADE1
:1019800082958F70982F917085E0692F0E94EA09E7
:1019900086E061E00E94EA0980E090E0A0E8BFE311
:1019A0008DAB9EABAFABB8AF6DA97EA98FA998AD3B
:1019B00020E030E04AEF54E40E941F02DC01CB013A
:1019C00089AB9AABABABBCAB69A97AA98BA99CA933
:1019D00020E030E040E85FE30E94790388232CF4A4
:1019E00081E090E098AB8FA73FC069A97AA98BA945
:1019F0009CA920E03FEF4FE757E40E941903181617
:101A00004CF56DA97EA98FA998AD20E030E040E2A9
:101A100051E40E941F02DC01CB01BC01CD010E94F8
:101A20004900DC01CB0198AB8FA70FC088EC90E098
:101A30009EA78DA78DA59EA50197F1F79EA78DA7BF
:101A40008FA598A9019798AB8FA78FA598A9009704
:101A500069F714C069A97AA98BA99CA90E944900B9
:101A6000DC01CB0198AB8FA78FA598A99CA78BA76A
:101A70008BA59CA50197F1F79CA78BA786E060E05A
:101A80000E94EA0980E090E0A0E8BFE38FA398A756
:101A9000A9A7BAA76FA178A589A59AA520E030E0EB
:101AA0004AEF54E40E941F02DC01CB018BA39CA3EC
:101AB000ADA3BEA36BA17CA18DA19EA120E030E0CF
:101AC00040E85FE30E94790388232CF481E090E0F2
:101AD0009AA389A33FC06BA17CA18DA19EA120E008
:101AE0003FEF4FE757E40E94190318164CF56FA11A
:101AF00078A589A59AA520E030E040E251E40E9453
:101B00001F02DC01CB01BC01CD010E944900DC01B8
:101B1000CB019AA389A30FC088EC90E098A38F8F84
:101B20008F8D98A10197F1F798A38F8F89A19AA122
:101B300001979AA389A389A19AA1009769F714C074
:101B40006BA17CA18DA19EA10E944900DC01CB016B
:101B50009AA389A389A19AA19E8F8D8F8D8D9E8D29
:101B60000197F1F79E8F8D8F89AD86958695869525
:101B7000982F917082E0692F0E94EA0989AD8695BD
:101B80008695982F917083E0692F0E94EA0989ADAC
:101B90008695982F917084E0692F0E94EA0989AD9B
:101BA000982F917085E0692F0E94EA0986E061E034
:101BB0000E94EA0980E090E0A0E8BFE3898F9A8F55
:101BC000AB8FBC8F698D7A8D8B8D9C8D20E030E042
:101BD0004AEF54E40E941F02DC01CB018D8B9E8BE7
:101BE000AF8BB88F6D897E898F89988D20E030E02A
:101BF00040E85FE30E94790388232CF481E090E0C1
:101C00009C8B8B8B3FC06D897E898F89988D20E05E
:101C10003FEF4FE757E40E94190318164CF5698D02
:101C20007A8D8B8D9C8D20E030E040E251E40E9463
:101C30001F02DC01CB01BC01CD010E944900DC0187
:101C4000CB019C8B8B8B0FC088EC90E09A8B898B9F
:101C500089899A890197F1F79A8B898B8B899C895D
:101C600001979C8B8B8B8B899C89009769F714C09B
:101C70006D897E898F89988D0E944900DC01CB0196
:101C80009C8B8B8B8B899C89988B8F878F85988970
:101C90000197F1F7988B8F8786E060E00E94EA0950
:101CA00080E090E0A0E8BFE38B879C87AD87BE878C
:101CB0006B857C858D859E8520E030E04AEF54E47D
:101CC0000E941F02DC01CB018F839887A987BA8706
:101CD0006F81788589859A8520E030E040E85FE370
:101CE0000E94790388232CF481E090E09E838D8309
:101CF0003FC06F81788589859A8520E03FEF4FE767
:101D000057E40E94190318164CF56B857C858D8568
:101D10009E8520E030E040E251E40E941F02DC0199
:101D2000CB01BC01CD010E944900DC01CB019E83A7
:101D30008D830FC088EC90E09C838B838B819C818A
:101D40000197F1F79C838B838D819E8101979E8300
:101D50008D838D819E81009769F714C06F8178858E
:101D600089859A850E944900DC01CB019E838D8381
:101D70008D819E819A83898389819A810197F1F768
:101D80009A838983E9960FB6F894DEBF0FBECDBF64
:101D9000CF91DF910895DF93CF93CDB7DEB7E99769
:101DA0000FB6F894DEBF0FBECDBF89AF87E061E00C
:101DB0000E94EA0989AD982F991F9927991F82E0FF
:101DC000692F0E94EA0989AD829586958695837070
:101DD000982F917083E0692F0E94EA0989AD82955E
:101DE00086958770982F917084E0692F0E94EA0988
:101DF00089AD82958F70982F917085E0692F0E9430
:101E0000EA0986E061E00E94EA0980E090E0A0E84B
:101E1000BFE38DAB9EABAFABB8AF6DA97EA98FA969
:101E200098AD20E030E04AEF54E40E941F02DC014C
:101E3000CB0189AB9AABABABBCAB69A97AA98BA937
:101E40009CA920E030E040E85FE30E94790388230A
:101E50002CF481E090E098AB8FA73FC069A97AA9E4
:101E60008BA99CA920E03FEF4FE757E40E9419039C
:101E700018164CF56DA97EA98FA998AD20E030E029
:101E800040E251E40E941F02DC01CB01BC01CD0104
:101E90000E944900DC01CB0198AB8FA70FC088ECF2
:101EA00090E09EA78DA78DA59EA50197F1F79EA70F
:101EB0008DA78FA598A9019798AB8FA78FA598A9F3
:101EC000009769F714C069A97AA98BA99CA90E94F7
:101ED0004900DC01CB0198AB8FA78FA598A99CA7DF
:101EE0008BA78BA59CA50197F1F79CA78BA786E0F4
:101EF00060E00E94EA0980E090E0A0E8BFE38FA3E1
:101F000098A7A9A7BAA76FA178A589A59AA520E047
:101F100030E04AEF54E40E941F02DC01CB018BA3A6
:101F20009CA3ADA3BEA36BA17CA18DA19EA120E02B
:101F300030E040E85FE30E94790388232CF481E0DD
:101F400090E09AA389A33FC06BA17CA18DA19EA123
:101F500020E03FEF4FE757E40E94190318164CF5B5
:101F60006FA178A589A59AA520E030E040E251E470
:101F70000E941F02DC01CB01BC01CD010E9449007F
:101F8000DC01CB019AA389A30FC088EC90E098A351
:101F90008F8F8F8D98A10197F1F798A38F8F89A1CB
:101FA0009AA101979AA389A389A19AA1009769F799
:101FB00014C06BA17CA18DA19EA10E944900DC01EF
:101FC000CB019AA389A389A19AA19E8F8D8F8D8D14
:101FD0009E8D0197F1F79E8F8D8F89AD86958695A1
:101FE0008695982F917082E0692F0E94EA0989AD49
:101FF00086958695982F917083E0692F0E94EA0953
:1020000089AD8695982F917084E0692F0E94EA0926
:1020100089AD982F917085E0692F0E94EA0986E0CA
:1020200061E00E94EA0980E090E0A0E8BFE3898FC8
:102030009A8FAB8FBC8F698D7A8D8B8D9C8D20E0B4
:1020400030E04AEF54E40E941F02DC01CB018D8B8B
:102050009E8BAF8BB88F6D897E898F89988D20E09C
:1020600030E040E85FE30E94790388232CF481E0AC
:1020700090E09C8B8B8B3FC06D897E898F89988D7A
:1020800020E03FEF4FE757E40E94190318164CF584
:10209000698D7A8D8B8D9C8D20E030E040E251E49B
:1020A0000E941F02DC01CB01BC01CD010E9449004E
:1020B000DC01CB019C8B8B8B0FC088EC90E09A8B62
:1020C000898B89899A890197F1F79A8B898B8B89FA
:1020D0009C8901979C8B8B8B8B899C89009769F7D6
:1020E00014C06D897E898F89988D0E944900DC011A
:1020F000CB019C8B8B8B8B899C89988B8F878F8551
:1021000098890197F1F7988B8F8786E060E00E94AD
:10211000EA0980E090E0A0E8BFE38B879C87AD8769
:10212000BE876B857C858D859E8520E030E04AEFFB
:1021300054E40E941F02DC01CB018F839887A9879A
:10214000BA876F81788589859A8520E030E040E8FC
:102150005FE30E94790388232CF481E090E09E8362
:102160008D833FC06F81788589859A8520E03FEF18
:102170004FE757E40E94190318164CF56B857C85D0
:102180008D859E8520E030E040E251E40E941F02F0
:10219000DC01CB01BC01CD010E944900DC01CB0177
:1021A0009E838D830FC088EC90E09C838B838B8112
:1021B0009C810197F1F79C838B838D819E81019790
:1021C0009E838D838D819E81009769F714C06F81F6
:1021D000788589859A850E944900DC01CB019E8320
:1021E0008D838D819E819A83898389819A810197CC
:1021F000F1F79A838983E9960FB6F894DEBF0FBE94
:10220000CDBFCF91DF910895DF93CF93CDB7DEB7E8
:102210006C970FB6F894DEBF0FBECDBF80E090E0A4
:10222000A8E4B2E4898F9A8FAB8FBC8F698D7A8DC9
:102230008B8D9C8D20E030E04AEF54E40E941F0219
:10224000DC01CB018D8B9E8BAF8BB88F6D897E8926
:102250008F89988D20E030E040E85FE30E947903A9
:1022600088232CF481E090E09C8B8B8B3FC06D89A0
:102270007E898F89988D20E03FEF4FE757E40E94D9
:10228000190318164CF5698D7A8D8B8D9C8D20E085
:1022900030E040E251E40E941F02DC01CB01BC01AE
:1022A000CD010E944900DC01CB019C8B8B8B0FC0C0
:1022B00088EC90E09A8B898B89899A890197F1F74C
:1022C0009A8B898B8B899C8901979C8B8B8B8B89B3
:1022D0009C89009769F714C06D897E898F89988DD4
:1022E0000E944900DC01CB019C8B8B8B8B899C89E4
:1022F000988B8F878F8598890197F1F7988B8F87B7
:1023000082E00E94920C88E20E94920C8CE00E9473
:10231000920C81E00E94920C80E090E0A0E8BFE384
:102320008B879C87AD87BE876B857C858D859E85D9
:1023300020E030E04AEF54E40E941F02DC01CB01B0
:102340008F839887A987BA876F81788589859A85D1
:1023500020E030E040E85FE30E94790388232CF41A
:1023600081E090E09E838D833FC06F817885898571
:102370009A8520E03FEF4FE757E40E9419031816B3
:102380004CF56B857C858D859E8520E030E040E2B4
:1023900051E40E941F02DC01CB01BC01CD010E946F
:1023A0004900DC01CB019E838D830FC088EC90E057
:1023B0009C838B838B819C810197F1F79C838B831A
:1023C0008D819E8101979E838D838D819E81009753
:1023D00069F714C06F81788589859A850E944900C4
:1023E000DC01CB019E838D838D819E819A838983BD
:1023F00089819A810197F1F79A838983809160019D
:102400000E94920C6C960FB6F894DEBF0FBECDBF43
:10241000CF91DF910895DF93CF93CDB7DEB781E001
:102420000E94920C10925E0110925F0180916001F7
:10243000813051F481E00E94271280E06FE00E9419
:1024400040128FE080935F01CF91DF910895DF9379
:10245000CF930F92CDB7DEB789838981882331F47A
:102460001092600186E00E94920C06C081E0809389
:10247000600184E00E94920C0F90CF91DF9108954B
:10248000DF93CF9300D0CDB7DEB789836A8389818C
:1024900080935E018A8180935F0199818A81890F8F
:1024A00080580E94920C0F900F90CF91DF91089569
:1024B000DF93CF930F92CDB7DEB789838091600110
:1024C000882309F040C080915F018431B1F580918B
:1024D0005E01882351F480E460E00E94401280E4B1
:1024E00080935E0110925F0128C080915E0180346C
:1024F00051F484E160E00E94401284E180935E0127
:1025000010925F011AC080915E01843151F484E51C
:1025100060E00E94401284E580935E0110925F01AA
:102520000CC080915E01843541F480E060E00E943F
:10253000401210925E0110925F0180915F018F5FE7
:1025400080935F0143C080915F018823D4F580911F
:102550005E01882359F480E463E10E94401280E424
:1025600080935E0183E180935F012BC080915E01C7
:10257000803459F484E163E10E94401284E1809345
:102580005E0183E180935F011CC080915E01843114
:1025900059F484E563E10E94401284E580935E0172
:1025A00083E180935F010DC080915E01843549F421
:1025B00080E063E10E94401210925E0183E180930B
:1025C0005F0180915F01815080935F0189810E944A
:1025D000CB0E0F90CF91DF910895DF93CF9300D072
:1025E0000F92CDB7DEB79B838A8319820EC0898193
:1025F000282F30E08A819B81FC01E20FF31F80814C
:102600000E94581289818F5F89838981282F30E049
:102610008A819B81FC01E20FF31F8081882339F7B7
:102620000F900F900F90CF91DF9108950F931F930C
:10263000DF93CF93CDB7DEB761970FB6F894DEBFC7
:102640000FBECDBF6E877F87888B998B19828E8551
:102650009F85A889B9890097A105B10519F480E380
:102660000E9458128E859F85A889B989BB230CF0DA
:1026700041C08DE20E9458128E859F85A889B98934
:10268000B095A095909581959F4FAF4FBF4F8E8786
:102690009F87A88BB98B2EC08981082F10E08E856B
:1026A0009F85A889B9892AE030E040E050E0BC016C
:1026B000CD010E94C518DC01CB01282F205DCE0181
:1026C0000296FC01E00FF11F20838E859F85A8896B
:1026D000B9892AE030E040E050E0BC01CD010E9421
:1026E000C518DA01C9018E879F87A88BB98B8981AC
:1026F0008F5F89838E859F85A889B9890097A105F9
:10270000B10551F611C08981882F90E09C012150BC
:102710003040CE010296FC01E20FF31F80810E943F
:1027200058128981815089838981882361F7619654
:102730000FB6F894DEBF0FBECDBFCF91DF911F91D2
:102740000F910895DF93CF93CDB7DEB727970FB6DC
:10275000F894DEBF0FBECDBF6B837C838D839E83D9
:102760001A828FE189833DC08A818823B9F48981E7
:10277000282F332727FD30958B819C81AD81BE8129
:10278000022E04C0B695A795979587950A94D2F71F
:1027900081709070882311F081E08A838A81813072
:1027A000E9F48981282F332727FD30958B819C817F
:1027B000AD81BE81022E04C0B695A79597958795E9
:1027C0000A94D2F781709070882319F081E38F8387
:1027D00002C080E38F838F810E94581289818150CB
:1027E0008983898188230CF0BFCF27960FB6F89490
:1027F000DEBF0FBECDBFCF91DF910895DF93CF93A2
:1028000000D000D000D0CDB7DEB76B837C838D8342
:102810009E831A8280E30E94581288E70E94581211
:102820008CE1898390C08981282F332727FD30953B
:102830008B819C81AD81BE81022E04C0B695A79587
:10284000979587950A94D2F70097A105B10511F0E5
:1028500081E08A838A81882309F43DC08981282FF9
:10286000332727FD30958B819C81AD81BE81022E5F
:1028700004C0B695A795979587950A94D2F78A30A4
:102880009105A105B105A0F08981282F332727FDE7
:1028900030958B819C81AD81BE8104C0B695A79592
:1028A000979587952A95D2F7895C0E94581213C094
:1028B0008981282F332727FD30958B819C81AD811D
:1028C000BE8104C0B695A795979587952A95D2F7AE
:1028D000805D0E9458128981282F332727FD30956B
:1028E00080E290E0AC01421B530B9A018B819C81EA
:1028F000AD81BE8104C0880F991FAA1FBB1F2A95F6
:10290000D2F78B839C83AD83BE838981282F3327A5
:1029100027FD309580E290E0AC01421B530B9A01F9
:102920008B819C81AD81BE81022E04C0B695A79596
:10293000979587950A94D2F78B839C83AD83BE834A
:10294000898184508983898188230CF06CCF2696F5
:102950000FB6F894DEBF0FBECDBFCF91DF910895C3
:10296000DF93CF9300D000D00F92CDB7DEB78B832B
:102970007D836C8380916001882301F58B81882F92
:1029800090E00896880F991F880F991F880F991F4C
:102990000E94920C1A820EC08A81282F30E08C810E
:1029A0009D81FC01E20FF31F80810E94CB0E8A8182
:1029B0008F5F8A838A81883078F325C08B81882F46
:1029C00090E00996880F991F880F991F880F991F0B
:1029D00081500E94920C198213C08981282F30E007
:1029E00087E090E0821B930B9C018C819D81FC0110
:1029F000E20FF31F80810E94CB0E89818F5F898354
:102A00008981883050F30F900F900F900F900F90A6
:102A1000CF91DF9108958F92AF92CF92EF920F9363
:102A2000DF93CF93CDB7DEB72A970FB6F894DEBF0A
:102A30000FBECDBF9A8389836B834C832D830E8316
:102A4000EF82C886A9868A86E981FA818B81808394
:102A500089819A81FC0131968C81808389819A8158
:102A6000FC0132968D81808389819A81FC013396A5
:102A70008E81808389819A81FC0134968F81808345
:102A800089819A81FC0135968885808389819A8124
:102A9000FC0136968985808389819A81FC0137966D
:102AA0008A8580832A960FB6F894DEBF0FBECDBF0D
:102AB000CF91DF910F91EF90CF90AF908F900895CD
:102AC0001F93DF93CF93CDB7DEB7AD970FB6F894D2
:102AD000DEBF0FBECDBF0E94B7090E9404110E9445
:102AE000EC0660E875E280E090E00E94A3050E9499
:102AF0001F0680916201882309F03DC281E0809326
:102B000062010E940B1280E690E00E94ED1280E4C8
:102B100060E00E94401283E790E00E94ED1284E1A1
:102B200060E00E94401282E890E00E94ED120E9454
:102B30001006882F90E0C097909365018093640100
:102B400080916401909165018130910509F057C130
:102B500010926601109263010E940B1280E990E0CE
:102B60000E94ED1280E460E00E9440121DA699C010
:102B700080916601882F90E09C01220F331FC901CC
:102B8000880F991F880F991F820F931F182F0E947B
:102B90001006810F805380936601809166019AE050
:102BA000692F0E949718892F882F90E0A0E0B0E04D
:102BB000BC01CD010E94161380E090E0A8ECB2E4C5
:102BC0008FA398A7A9A7BAA76FA178A589A59AA549
:102BD00020E030E04AEF54E40E941F02DC01CB0108
:102BE0008BA39CA3ADA3BEA36BA17CA18DA19EA131
:102BF00020E030E040E85FE30E94790388232CF472
:102C000081E090E09AA389A33FC06BA17CA18DA134
:102C10009EA120E03FEF4FE757E40E9419031816EA
:102C20004CF56FA178A589A59AA520E030E040E297
:102C300051E40E941F02DC01CB01BC01CD010E94C6
:102C40004900DC01CB019AA389A30FC088EC90E076
:102C500098A38F8F8F8D98A10197F1F798A38F8FED
:102C600089A19AA101979AA389A389A19AA1009702
:102C700069F714C06BA17CA18DA19EA10E9449009F
:102C8000DC01CB019AA389A389A19AA19E8F8D8F84
:102C90008D8D9E8D0197F1F79E8F8D8F8DA58F5F06
:102CA0008DA78DA5833008F463CF0E940B128DE9A8
:102CB00090E00E94ED1280E460E00E9440121CA6A9
:102CC00099C080916301882F90E09C01220F331FEF
:102CD000C901880F991F880F991F820F931F182F02
:102CE0000E941006810F80538093630180916301DD
:102CF0009AE0692F0E949718892F882F90E0A0E012
:102D0000B0E0BC01CD010E94161380E090E0A8EC79
:102D1000B2E4898F9A8FAB8FBC8F698D7A8D8B8D42
:102D20009C8D20E030E04AEF54E40E941F02DC0159
:102D3000CB018D8B9E8BAF8BB88F6D897E898F89F0
:102D4000988D20E030E040E85FE30E94790388231B
:102D50002CF481E090E09C8B8B8B3FC06D897E8949
:102D60008F89988D20E03FEF4FE757E40E941903C9
:102D700018164CF5698D7A8D8B8D9C8D20E030E096
:102D800040E251E40E941F02DC01CB01BC01CD01F5
:102D90000E944900DC01CB019C8B8B8B0FC088EC1F
:102DA00090E09A8B898B89899A890197F1F79A8BA0
:102DB000898B8B899C8901979C8B8B8B8B899C89B8
:102DC000009769F714C06D897E898F89988D0E945C
:102DD0004900DC01CB019C8B8B8B8B899C89988B68
:102DE0008F878F8598890197F1F7988B8F878CA5AE
:102DF0008F5F8CA78CA5833008F463CF7ACE809147
:102E00006401909165018230910509F072CE1092B3
:102E100066010E940B1280EB90E00E94ED1280E4AC
:102E200060E00E9440128FEB90E00E94ED1284E17E
:102E300060E00E9440121BA699C080916601882F15
:102E400090E09C01220F331FC901880F991F880F42
:102E5000991F820F931F182F0E941006810F805315
:102E600080936601809166019AE0692F0E9497180D
:102E7000892F882F90E0A0E0B0E0BC01CD010E9436
:102E8000161380E090E0A8ECB2E48B879C87AD87B6
:102E9000BE876B857C858D859E8520E030E04AEF7E
:102EA00054E40E941F02DC01CB018F839887A9871D
:102EB000BA876F81788589859A8520E030E040E87F
:102EC0005FE30E94790388232CF481E090E09E83E5
:102ED0008D833FC06F81788589859A8520E03FEF9B
:102EE0004FE757E40E94190318164CF56B857C8553
:102EF0008D859E8520E030E040E251E40E941F0273
:102F0000DC01CB01BC01CD010E944900DC01CB01F9
:102F10009E838D830FC088EC90E09C838B838B8194
:102F20009C810197F1F79C838B838D819E81019712
:102F30009E838D838D819E81009769F714C06F8178
:102F4000788589859A850E944900DC01CB019E83A2
:102F50008D838D819E819A83898389819A8101974E
:102F6000F1F79A8389838BA58F5F8BA78BA583301D
:102F700008F463CFBECD80916201813009F0B9CDF4
:102F800080E061E00E94EA0981E00E94010B882351
:102F9000D9F30E94CE1710926201ABCDDF93CF938D
:102FA000CDB7DEB72E970FB6F894DEBF0FBECDBFFC
:102FB00080E060E00E94EA098091640190916501DF
:102FC0000E946C068093610180916101813031F42F
:102FD0000E940B1287EC90E00E94ED128091660136
:102FE0000E946C068093610180916101823069F4D6
:102FF00080916401909165018230910531F40E94C5
:103000000B1281EE90E00E94ED128091640190918C
:1030100065018130910581F4809163010E946C0605
:103020008093610180916101833031F40E940B1221
:1030300084EF90E00E94ED1280E090E0A8E4B4E418
:103040008B879C87AD87BE876B857C858D859E85AC
:1030500020E030E04AEF54E40E941F02DC01CB0183
:103060008F839887A987BA876F81788589859A85A4
:1030700020E030E040E85FE30E94790388232CF4ED
:1030800081E090E09E838D833FC06F817885898544
:103090009A8520E03FEF4FE757E40E941903181686
:1030A0004CF56B857C858D859E8520E030E040E287
:1030B00051E40E941F02DC01CB01BC01CD010E9442
:1030C0004900DC01CB019E838D830FC088EC90E02A
:1030D0009C838B838B819C810197F1F79C838B83ED
:1030E0008D819E8101979E838D838D819E81009726
:1030F00069F714C06F81788589859A850E94490097
:10310000DC01CB019E838D838D819E819A8389838F
:1031100089819A810197F1F79A8389832E960FB658
:10312000F894DEBF0FBECDBFCF91DF910895991BFC
:1031300079E004C0991F961708F0961B881F7A95AE
:10314000C9F780950895A1E21A2EAA1BBB1BFD01A9
:103150000DC0AA1FBB1FEE1FFF1FA217B307E40776
:10316000F50720F0A21BB30BE40BF50B661F771FCE
:10317000881F991F1A9469F76095709580959095AE
:103180009B01AC01BD01CF01089597FB092E0526D7
:103190000ED057FD04D0D7DF0AD0001C38F450956C
:1031A0004095309521953F4F4F4F5F4F0895F6F76B
:1031B00090958095709561957F4F8F4F9F4F0895A3
:1031C0002F923F924F925F926F927F928F929F9237
:1031D000AF92BF92CF92DF92EF92FF920F931F9325
:1031E000CF93DF93CDB7DEB7CA1BDB0B0FB6F894D6
:1031F000DEBF0FBECDBF09942A88398848885F8416
:103200006E847D848C849B84AA84B984C884DF8086
:10321000EE80FD800C811B81AA81B981CE0FD11D6A
:103220000FB6F894DEBF0FBECDBFED010895F89440
:02323000FFCFCE
:1032320043484F4F5345204F5045524154494F4EFA
:10324200203A00312E414444204E455720555345E3
:103252005200322E44454C455445205553455200A8
:10326200454E544552204E455720494400454E5440
:103272004552204E45572050415353574F52440018
:10328200454E54455220494420544F204245004463
:10329200454C45544544004F7065726174696F6EC8
:1032A20020686173206265656E2073656E742021EB
:1032B20000494420484153204245454E2053454E43
:1032C20054202100494420414E4420504153535739
:1032D2004F524420484156454245454E2053454EA3
:1032E2005420210000000000000000000000010145
:1032F200020103000400050006000700080009009F
:103302000A000B000C000D000E010F00100011004E
:1033120012001300140015001600170018011900FE
:0C3322001A021B021C001D001E021F02EC
:00000001FF
